:020000040000FA
:1000000080020020A1020000A9020000AB02000053
:10001000AD020000AF020000B102000000000000CD
:10002000000000000000000000000000B30200001B
:10003000B502000000000000B7020000B902000095
:10004000BB020000BD020000BF020000C1020000B0
:10005000C3020000C5020000C7020000C902000080
:10006000CB020000CD020000CF020000D102000050
:10007000D3020000D5020000D7020000D902000020
:10008000DB020000DD020000DF020000E1020000F0
:10009000E3020000E5020000E7020000E9020000C0
:1000A000EB020000ED020000EF020000F102000090
:1000B000F3020000F5020000F7020000F902000060
:1000C000FB020000FD020000FF020000010300002F
:1000D00003030000050300000703000009030000FC
:1000E0000B0300000D0300000F03000011030000CC
:1000F000130300001503000017030000190300009C
:100100001B0300001D0300001F030000210300006B
:10011000230300002503000027030000290300003B
:100120002B0300002D0300002F030000310300000B
:1001300033030000350300003703000039030000DB
:100140003B0300003D0300003F0300005903000093
:1001500000000000000000005B0300005D030000E1
:100160005F03000061030000000000006303000063
:100170006503000067030000690300006B030000D3
:100180006D0300006F0300007103000073030000A3
:100190007503000077030000790300007B03000073
:1001A0007D0300007F030000810300008303000043
:1001B0008503000087030000890300008B03000013
:1001C0008D0300008F0300009103000093030000E3
:1001D0009503000097030000990300009B030000B3
:1001E0009D0300009F030000A1030000A303000083
:1001F000A5030000A7030000A9030000AB03000053
:1002000000F002F800F03CF80AA090E8000C8244EC
:100210008344AAF10107DA4501D100F031F8AFF2C9
:10022000090EBAE80F0013F0010F18BFFB1A43F0D4
:1002300001031847A0050000C0050000103A24BFC4
:1002400078C878C1FAD8520724BF30C830C144BF3B
:1002500004680C607047000000230024002500267D
:10026000103A28BF78C1FBD8520728BF30C148BF19
:100270000B6070471FB500F0A7FA1FBD10B510BD89
:1002800000F0A7F81146FFF7F5FF00F063FA00F061
:10029000C5F803B4FFF7F2FF03BC00F0CDF800008F
:1002A0004548804745480047FEE7FEE7FEE7FEE792
:1002B000FEE7FEE7FEE7FEE7FEE7FEE7FEE7FEE716
:1002C000FEE7FEE7FEE7FEE7FEE7FEE7FEE7FEE706
:1002D000FEE7FEE7FEE7FEE7FEE7FEE7FEE7FEE7F6
:1002E000FEE7FEE7FEE7FEE7FEE7FEE7FEE7FEE7E6
:1002F000FEE7FEE7FEE7FEE7FEE7FEE7FEE7FEE7D6
:10030000FEE7FEE7FEE7FEE7FEE7FEE7FEE7FEE7C5
:10031000FEE7FEE7FEE7FEE7FEE7FEE7FEE7FEE7B5
:10032000FEE7FEE7FEE7FEE7FEE7FEE7FEE7FEE7A5
:10033000FEE7FEE7FEE7FEE7FEE7FEE7FEE7FEE795
:10034000FEE7FEE7FEE7FEE7FEE7FEE7FEE7FEE785
:10035000FEE7FEE7FEE7FEE7FEE7FEE7FEE7FEE775
:10036000FEE7FEE7FEE7FEE7FEE7FEE7FEE7FEE765
:10037000FEE7FEE7FEE7FEE7FEE7FEE7FEE7FEE755
:10038000FEE7FEE7FEE7FEE7FEE7FEE7FEE7FEE745
:10039000FEE7FEE7FEE7FEE7FEE7FEE7FEE7FEE735
:1003A000FEE7FEE7FEE7FEE7FEE7FEE70448054955
:1003B000034A054B70470000A1060000010200003F
:1003C00080000020800200208000002070477047DD
:1003D0007047754600F02CF8AE4605006946534656
:1003E00020F00700854618B020B5FFF7DFFFBDE815
:1003F00020404FF000064FF000074FF000084FF08C
:10040000000B21F00701AC46ACE8C009ACE8C0091C
:10041000ACE8C009ACE8C0098D46704710B5044689
:10042000AFF300802046BDE81040FFF732BF000068
:10043000004870471C00002001491820ABBEFEE7B1
:10044000260002007047002100E0491C8142FCD3D5
:100450007047D0F8003412F0010F14BF0B438B43E8
:10046000C0F8003412F0020FD0F8202414BF11435A
:1004700022EA0101C0F8201470472DE9F00301269B
:100480004FF0000C0325C2F3411706FA0CF40C429E
:1004900011D0D0F8C48F4FEA4C0405FA04F928EAC9
:1004A0000908C0F8C48FD0F8C48F07FA04F448EAEA
:1004B0000404C0F8C44F0CF1010C0CF0FF0CBCF1AB
:1004C000080FE2D3D0F800C512F0010F14BF4CEAB8
:1004D000010C2CEA010CC0F800C5D0F804C512F0DC
:1004E000020F14BF4CEA010C2CEA010CC0F804C541
:1004F000D0F808C512F0040F14BF4CEA010C2CEA26
:10050000010CC0F808C5D0F818C512F0080F14BFC8
:100510004CEA010C2CEA010CC0F818C512F0100FBF
:10052000D0F83C2514BF0A438A43C0F83C25D0F8D4
:100530000C2513F0010F14BF0A438A43C0F80C25A1
:10054000D0F8102513F0020F14BF0A438A43C0F8F5
:100550001025D0F8142513F0040F14BF0A438A4362
:10056000C0F81425D0F81C2513F0080F14BF0A4357
:100570008A43C0F81C25D0F8442513F4007F14BF2B
:100580000A438A43C0F84425D0F8402513F4407F3D
:1005900014BF0A438A43C0F84025D0F82825002B11
:1005A0000CBF114322EA0101C0F82815BDE8F00391
:1005B000704750F82100704730B50C4605460022C0
:1005C000FFF747FF21462846BDE8304008230122B7
:1005D000FFF753BF30B50C46054608230122FFF74D
:1005E0004CFF21462846BDE830400122FFF731BFCD
:1005F00040F821207047000010B5114800F026F89F
:1006000000BF0F4800F036F80028FAD00C48C01C94
:1006100000F01CF800BF0A48C01C00F02BF80028AE
:10062000F9D003210748FFF7D5FF03210648FFF75C
:10063000C3FF0A23012203210348FFF71EFF10BD59
:10064000050800F00050024000D00340C0F307232B
:100650000749C0B2194401F07043C1F3130143EAE2
:10066000411141EA800040F00070012202607047B1
:1006700000E60F40C0F307220849C0B2114401F060
:100680007042C1F3130142EA411141EA800040F097
:1006900000700068002818BF0120704700EA0F4072
:1006A0000448006840F470000249086002480349A9
:1006B0000860704788ED00E00024F4001800002076
:1006C00010B5044634B1012C13D0022C20D0032CD9
:1006D0003CD12CE0002201211D48FFF789FF0022B8
:1006E00002211B48FFF784FF4FF47A70FFF7ABFE3F
:1006F0002CE0002202211648FFF77AFF0122114662
:100700001348FFF775FF4FF47A70FFF79CFE1DE06A
:10071000002201210E48FFF76BFF002202210C4846
:10072000FFF766FF4FF47A70FFF78DFE0EE00022B0
:1007300001210748FFF75CFF022211460448FFF73A
:1007400057FF4FF47A70FFF77EFE00BF00BF10BD69
:1007500000500240FFF750FF15481649086026E098
:1007600002211548FFF725FF68B903E04FF47A70BE
:10077000FFF769FE02211048FFF71BFF0028F5D0A4
:1007800001200E4908700D48007848B10C480078E7
:10079000401C00F003000A49086000200949086075
:1007A00000200649087006480068FFF789FFD7E770
:1007B000A08601000000002000D0034014000020AB
:1007C0000C000020100000204FF04070E1EE100AF5
:1007D00070470000F4070000000000201C0000002B
:1007E0003C020000100800001C0000206402000011
:1007F000580200000000000000000000000000009F
:100800000000000000000000000000000024F400D0
:0400000500000201F4
:00000001FF
