:020000040000FA
:10000000E8080020E9020000F1020000F30200000D
:10001000F5020000F7020000F902000000000000F5
:10002000000000000000000000000000FB020000D3
:10003000FD02000000000000FF02000009110000A6
:10004000030300000503000007030000090300008C
:100050000B030000CD1100000F030000110300008E
:10006000130300001503000017030000190300002C
:100070001B0300001D0300001F03000021030000FC
:1000800023030000250300002703000029030000CC
:100090002B0300002D0300002F030000310300009C
:1000A000330300003503000037030000390300006C
:1000B0003B0300003D0300003F030000410300003C
:1000C000430300004503000047030000490300000C
:1000D0004B0300004D0300004F03000051030000DC
:1000E00053030000550300005703000059030000AC
:1000F0005B0300005D0300005F030000610300007C
:100100006303000065030000670300004907000067
:100110006B0300006D0300006F030000710300001B
:1001200073030000750300007703000079030000EB
:100130007B0300007D0300007F03000081030000BB
:10014000830300008503000087030000A103000073
:100150000000000000000000A3030000A503000051
:10016000A7030000A903000000000000AB0300008B
:10017000AD030000AF030000B1030000B3030000B3
:10018000B5030000B7030000B9030000BB03000083
:10019000BD030000BF030000C1030000C303000053
:1001A000C5030000C7030000C9030000CB03000023
:1001B000CD030000CF030000D1030000D3030000F3
:1001C000D5030000D7030000D9030000DB030000C3
:1001D000DD030000DF030000E1030000E303000093
:1001E000E5030000E7030000E9030000EB03000063
:1001F000ED030000EF030000F1030000F303000033
:1002000000F002F800F04CF80AA090E8000C8244DC
:100210008344AAF10107DA4501D100F041F8AFF2B9
:10022000090EBAE80F0013F0010F18BFFB1A43F0D4
:1002300001031847AC1B0000CC1B00000A4410F857
:10024000014B14F00F0508BF10F8015B240908BF2B
:1002500010F8014B6D1E05D010F8013B6D1E01F822
:10026000013BF9D1641E03D0641E01F8015BFBD190
:100270009142E4D3704700000023002400250026AB
:10028000103A28BF78C1FBD8520728BF30C148BFF9
:100290000B6070471FB501F0D9FA1FBD10B510BD36
:1002A00000F044F91146FFF7F5FF01F0CFF800F038
:1002B00062F903B4FFF7F2FF03BC00F069F9000034
:1002C000EFF3108072B67047EFF310807047EFF3D2
:1002D000108062B6704730BF704780F31188704756
:1002E000EFF31180704700004548804745480047BC
:1002F000FEE7FEE7FEE7FEE7FEE7FEE7FEE7FEE7D6
:10030000FEE7FEE7FEE7FEE7FEE7FEE7FEE7FEE7C5
:10031000FEE7FEE7FEE7FEE7FEE7FEE7FEE7FEE7B5
:10032000FEE7FEE7FEE7FEE7FEE7FEE7FEE7FEE7A5
:10033000FEE7FEE7FEE7FEE7FEE7FEE7FEE7FEE795
:10034000FEE7FEE7FEE7FEE7FEE7FEE7FEE7FEE785
:10035000FEE7FEE7FEE7FEE7FEE7FEE7FEE7FEE775
:10036000FEE7FEE7FEE7FEE7FEE7FEE7FEE7FEE765
:10037000FEE7FEE7FEE7FEE7FEE7FEE7FEE7FEE755
:10038000FEE7FEE7FEE7FEE7FEE7FEE7FEE7FEE745
:10039000FEE7FEE7FEE7FEE7FEE7FEE7FEE7FEE735
:1003A000FEE7FEE7FEE7FEE7FEE7FEE7FEE7FEE725
:1003B000FEE7FEE7FEE7FEE7FEE7FEE7FEE7FEE715
:1003C000FEE7FEE7FEE7FEE7FEE7FEE7FEE7FEE705
:1003D000FEE7FEE7FEE7FEE7FEE7FEE7FEE7FEE7F5
:1003E000FEE7FEE7FEE7FEE7FEE7FEE7FEE7FEE7E5
:1003F000FEE7FEE704480549034A054B7047000045
:10040000AD11000001020000E8060020E80800200D
:10041000E80600204FF000020429C0F0128010F01E
:10042000030C00F05E80CCF1040CBCF1020F18BF8D
:1004300000F8012BA8BF20F8022BA1EB0C0100F063
:1004400050B85FEAC17C24BF00F8012B00F8012BF3
:1004500048BF00F8012B70474FF0013C50F8042BC7
:1004600051F8043B9A4221D1A2EB0C03934313EAC7
:10047000CC1317D150F8042B51F8043B9A4215D1F4
:10048000A2EB0C03934313EACC130BD150F8042BCB
:1004900051F8043B9A4209D1A2EB0C03934313EAAF
:1004A000CC13DBD04FF00000704700BFD01A01BA68
:1004B000B1FA81F101F0180122FA01F0CB40C1F14B
:1004C0002001DBB2C0B2C01A2CFA01F3D11A914359
:1004D00011EAC311E6D170477047704770474FF07B
:1004E000000200B5134694469646203922BFA0E884
:1004F0000C50A0E80C50B1F12001BFF4F7AF090790
:1005000028BFA0E80C5048BF0CC05DF804EB890080
:1005100028BF40F8042B08BF704748BF20F8022BC3
:1005200011F0804F18BF00F8012B7047754600F09E
:100530002BF8AE4605006946534620F00700854675
:1005400018B020B5FFF756FFBDE820404FF0000679
:100550004FF000074FF000084FF0000B21F00701AB
:10056000AC46ACE8C009ACE8C009ACE8C009ACE8EE
:10057000C0098D46704710B50446AFF30080204691
:10058000BDE81040FFF795BE004870478806002080
:1005900001491820ABBEFEE726000200704700218B
:1005A00000E0491C8142FCD37047000010B50A20CE
:1005B000FFF7F5FF394800684FF47A7190FBF1F0CE
:1005C0000A2190FBF1F201FB120035490C5C224636
:1005D0000521222000F0F0F901220621222000F05E
:1005E000EBF900220621222000F0E6F90A20FFF7AD
:1005F000D6FF2A480068642190FBF1F00A2190FBA5
:10060000F1F201FB120026490C5C22460521222052
:1006100000F0D2F902220621222000F0CDF90022BA
:100620000621222000F0C8F90A20FFF7B8FF1B4876
:1006300000680A2190FBF1F090FBF1F201FB12003F
:1006400017490C5C22460521222000F0B5F904224E
:100650000621222000F0B0F900220621222000F01D
:10066000ABF90A20FFF79BFF0C4800680A2190FBBA
:10067000F1F201FB12000A490C5C224605212220FE
:1006800000F09AF908220621222000F095F90022B4
:100690000621222000F090F910BD00005C0000202F
:1006A00024000020D0F8003412F0010F14BF0B43D7
:1006B0008B43C0F8003412F0020FD0F8202414BF8E
:1006C000114322EA0101C0F820147047C0F81C143D
:1006D0007047D0F810241143C0F81014704770B55B
:1006E0000C4600F0FBFD0546214600F067FA28465F
:1006F000BDE8704000F0E4B9D0F8083412F0010F02
:1007000014BF0B438B43C0F80834D0F8043412F004
:10071000020F14BF0B438B43C0F80434D0F80C34E1
:1007200012F0040F14BF194323EA0101C0F80C149E
:10073000D0F8381512F4803F14BF41F0010121F0C8
:100740000101C0F83815704710B503211148FFF7B3
:10075000BDFF01210F4800F0E5F830B900F01CFFA3
:100760000D48007840000D4908800221094800F03A
:10077000D9F870B90A480078401C3C2190FBF1F28E
:1007800001FB120006490870034800784000054943
:10079000088010BD00D003407500002078000020C4
:1007A0007C000020760000202DE9F00301264FF0A8
:1007B000000C0325C2F3411706FA0CF40C4211D0C9
:1007C000D0F8C48F4FEA4C0405FA04F928EA090866
:1007D000C0F8C48FD0F8C48F07FA04F448EA0404C0
:1007E000C0F8C44F0CF1010C0CF0FF0CBCF1080F69
:1007F000E2D3D0F800C512F0010F14BF4CEA010C8F
:100800002CEA010CC0F800C5D0F804C512F0020FA4
:1008100014BF4CEA010C2CEA010CC0F804C5D0F856
:1008200008C512F0040F14BF4CEA010C2CEA010CAD
:10083000C0F808C5D0F818C512F0080F14BF4CEA6C
:10084000010C2CEA010CC0F818C512F0100FD0F8FA
:100850003C2514BF0A438A43C0F83C25D0F80C2538
:1008600013F0010F14BF0A438A43C0F80C25D0F8D7
:10087000102513F0020F14BF0A438A43C0F8102555
:10088000D0F8142513F0040F14BF0A438A43C0F8AC
:100890001425D0F81C2513F0080F14BF0A438A430F
:1008A000C0F81C25D0F8442513F4007F14BF0A4378
:1008B0008A43C0F84425D0F8402513F4407F14BF84
:1008C0000A438A43C0F84025D0F82825002B0CBFE6
:1008D000114322EA0101C0F82815BDE8F003704772
:1008E0000E4AC0F30741D26E01238B401A420C4AD4
:1008F0001ABF02EBC101496852F83110020AD1F85F
:100900002C354FF00F0C0CFA02FC00F00F0023EA1C
:100910000C0390401843C1F82C05704700E00F40CD
:10092000F019000050F82100704730B50C4605461C
:100930000022FFF7B7FE21462846BDE830400823D5
:100940000122FFF731BF30B50C46054608230122CE
:10095000FFF72AFF21462846BDE830400122FFF775
:10096000A1BE30B50C4605460222FFF79BFE21468C
:100970002846BDE8304009230122FFF715BF30B5F6
:100980000C4605460222FFF78DFE21462846BDE8AB
:10099000304008230122FFF707BF30B50C4605465B
:1009A0000222FFF77FFE21462846BDE8304008239B
:1009B0000122FFF7F9BE00002DE9F04104460F4681
:1009C000154600BF184800F031F80028FAD100227F
:1009D0002146154800F070F83946134800F02EF80B
:1009E0000321114800F028F800BF0F4800F01EF85E
:1009F0000028FAD10C4800F028F8C6B229460A4867
:100A000000F01CF80521084800F016F800BF064861
:100A100000F00CF80028FAD1034800F016F8C6B22E
:100A20003046BDE8F081000000000240406810F050
:100A3000010018BF01207047416070478160704716
:100A4000016A41F0100101627047406810F0010F27
:100A500005D110F0120F1CBF00F01C0070470020E1
:100A600070470000036A43F010030362002A14BFBA
:100A70000E4A0F4A02EB820301EB830302EB820270
:100A800092005B1EB3FBF2F2521EC260D0F8C02F80
:100A900012F0010F08BF7047064A1144521CB1FB07
:100AA000F2F1491E41F08001C1607047801A0600D2
:100AB000A08601007F47370142EA4101016070478B
:100AC0001649042804BF086840F4803018D005286F
:100AD00004BF086840F4003012D0062812D00F2856
:100AE00015D0102838BF7047103800F01F010122C0
:100AF00002FA01F142090A4850F8220001607047E9
:100B000008607047086840F48020086070474FF024
:100B1000E020016941F002010161704724ED00E02D
:100B20003C1B000010B5FFF7D2FB002818BF0120C6
:100B300010BD0000054A20F00301515809688007E4
:100B4000C00E21FA00F0C0B270470000A01A0000E9
:100B500006480068064A00F4E061002052F82030A0
:100B60008B421CBF401C0828F8D370470CED00E0F6
:100B7000801A0000044951F82000044940F0FD703B
:100B800040F0806008607047801A00000CED00E0C3
:100B9000FFF7A6BB084A20F00303D258136880076A
:100BA000C00E4FF0FF0C0CFA00FC23EA0C0301FA14
:100BB00000F0184310607047A01A000030B40A4DCE
:100BC0002A680A4B9A421CBFD5F800C0002207D001
:100BD0005CF8224043F82240521C9B2AF8D32B6039
:100BE00043F8201030BC704708ED00E000040020FE
:100BF00010B5244800F04AFA00BF224800F05AFA23
:100C00000028FAD01F48C01C00F040FA00BF1D4861
:100C1000C01C00F04FFA0028F9D01A48C01D00F09F
:100C200035FA00BF1748C01D00F044FA0028F9D07B
:100C3000FFF778FF4620FFF743FF13491348FFF7FC
:100C40004EFD03211148FFF770FE0A230122032104
:100C50000E48FFF7A9FD01210D48FFF774FE0121A1
:100C60000C48FFF770FE02210A48FFF76CFE0022D5
:100C700003210648FFF740FD03210448FFF729FD43
:100C800010BD0000050800F04907000000D0034037
:100C9000005002400040064010B51E4800F0F6F932
:100CA0001D4800F0F3F91D48FFF71AFE1C48FFF736
:100CB00017FE04211B48FFF762FE08211948FFF7C1
:100CC00050FE0122184801681848FFF7CBFE17486C
:100CD000FFF7B6FEFF220C212220FFF76DFE04462F
:100CE00000220D212220FFF767FE044600220E217C
:100CF0002220FFF761FE0446002203211820FFF79F
:100D00005BFE0446FF2201211820FFF755FE044632
:100D100010BD0000002000F0010800F002080100F2
:100D2000020C0100005000401C00002000000240A6
:100D300010B5124800F0AAF9114800F0A7F900BF59
:100D40000F4800F0B7F90028FAD00120FFF7C8FDDE
:100D500040F20140FFF7C4FD03214FF04020FFF7B0
:100D60001CFE60234FF4E13206480168064800F09B
:100D700064FA06A000F0A4FA10BD0000001800F00C
:100D8000000800F01C00002000C000400D0A48656B
:100D90006C6C6F2C20776F726C64210D0A00000060
:100DA0002DE9F003AF4D02462868AF4B1840A0F183
:100DB0008053B3F5A02359D002F03809DFF8AC8294
:100DC000C2F38414B9F1100F25D0B9F1300F04BF6C
:100DD00047F230504FF400130DD04FF038009043DD
:100DE00004BF4FF40040C30105D012F0380F1CBF00
:100DF0000020034613D09E4F12F4605F4FF00006B0
:100E000018BF00222CD057F8324044457DD307EB61
:100E1000C2025268E1E0002340461524EBE7A4F14A
:100E20000900122822D29348D5F87CC04FF04C73A9
:100E300050F824002CF01C0C072CA8BF4CF0100C10
:100E4000C5F87CC02E6D4FF4002C16F4807FD2D1F3
:100E5000BCF1010C0AD02E6D16F4807FF8D0CAE7E1
:100E600012F0380F18BFB9F1100F04D0BDE8F0032D
:100E70004FF000007047C2F30268DFF8FCC14FF08A
:100E8000000257F83290E14503D307EBC2025268E3
:100E900003E0521C062AF4D33246C5F8C020D5F828
:100EA000B020DFF8D8C102EA0C0242F00042C5F8D7
:100EB000B020DFF8CCC1A4F109024C1E5CF828C0B8
:100EC000A444BCFBF1FCD5F8B0101943C5F8B01030
:100ED00008EBC80101EB41046A4902EB420201EB55
:100EE000C40101EB82046468C5F86441D5F864412B
:100EF0006FF0FF0808EB0C2C44EA0C0CC5F864C139
:100F000051F82210D5F8602100E061E002F40002FF
:100F10001143C5F86011D5F86011D5F86021C1F30F
:100F20008921C2F30904D5F86421C2F3042202F135
:100F3000010CD5F8642102F01F02521CB0FBF2F044
:100F40004A09C2F100084443424301EB481104EB53
:100F50005212484302EB9020B0FBFCF041080846D7
:100F6000002257F832C0844503D307EBC20046681D
:100F700002E0521C062AF4D3C5F8C060D5F860011F
:100F800010F4000F1DBFD5F8B00040F08040C5F848
:100F9000B000D5F8600104BF40F40000C5F860015E
:100FA0004FF40040D5F8682112F0010F02D1401E25
:100FB0000028F7DC002808BF002148D0D5F8B00091
:100FC000184340F0010040F01040C5F8B0003EE08A
:100FD000521C062AFFF417AF3246C5F8C020D5F8D8
:100FE000602122F40002C5F86021D5F8B020DFF8B6
:100FF00098C002EA0C0242F00042C5F8B020002975
:1010000008BF4FF0000C0AD0B0FBF1FCBCF1000FA0
:1010100018BFACF1010C0CF10101B0FBF1F1084675
:10102000002257F83240844203D307EBC2004668DF
:1010300002E0521C062AF4D3C5F8C060D5F8B0000F
:1010400043EA8C22104340F00040C5F8B000D5F8C8
:10105000B00020F47000C5F8B000BDE8F003084609
:101060007047000000E00F400000FF700024F40013
:10107000B01D0000941B000040787D0100FC0FE0D3
:101080008C1B0000001C0000FF0300EFC0F30723CF
:101090000749C0B2194401F07043C1F3130143EA98
:1010A000411141EA800040F0007001220260704767
:1010B00000E60F40C0F307220849C0B2114401F016
:1010C0007042C1F3130142EA411141EA800040F04D
:1010D00000700068002818BF0120704700EA0F4028
:1010E0004FF0E020016941F00501016170474FF0C8
:1010F000E020016941F00201016170474FF0E021F9
:10110000401E48617047000010B52148008848B172
:101110002048006802281AD01D480088401E1C493B
:10112000088014E001211C48FFF7FCFB38B11B4884
:10113000007800EB800040001549088004E0174863
:1011400000784000124908800120154908701548B0
:10115000008848B10F480068022818D0114800885C
:10116000401E1049088012E001210B48FFF7DAFB0E
:1011700030B10A48007800EB80000A49088003E09B
:10118000064800780749088001200749087010BD0B
:10119000780000200400002000D0034075000020EB
:1011A0007B000020760000207A00002004480068C0
:1011B00040F4700002490860024803490860704723
:1011C00088ED00E00024F4008400002010B5012127
:1011D0000D4800F06FF8044621460B4800F064F813
:1011E00009E0094800F016F8084908700846007838
:1011F00040B200F02BFA044800F01AF80028F0D1B1
:10120000034800F05FFA10BD00C000404800002015
:101210006C060020816911F0100F0CBF00684FF0C0
:10122000FF307047826912F0200FFBD101607047D8
:101230008069012121EA10107047D0F818C01CF015
:10124000080FFAD1D0F82CC02CF0100CC0F82CC02C
:10125000D0F830C02CF0010C2CF4407CC0F830C029
:10126000D0F830C0B1EB021F34BF4CF0200C2CF092
:10127000200CC0F830C038BF5208C900B1FBF2F1F1
:10128000491C49088A09426201F03F018162C36238
:1012900000218161C16A41F01001C162016B40F21D
:1012A000013211430163704741647047826B1143FF
:1012B00081637047002914BF006CC06B7047000049
:1012C00010B5044604E014F8011B0348FFF7AAFF19
:1012D00020780028F7D110BD00C0004010490F4A07
:1012E00018230968DFF83CC001EA0C01A1F1805C19
:1012F000BCF5202C04BF0C4A1B230021002B0AD96B
:1013000052F831C0844503D102EBC10040687047F8
:10131000491C9942F4D3002070470000581800007F
:1013200000E00F400000FF7018190000324800680C
:101330000A2190FBF1F201FB1200002855D12E4842
:10134000006890FBF1F090FBF1F201FB1200E8BBAA
:1013500029480068642190FBF1F00A2190FBF1F22A
:1013600001FB120010BB244800684FF47A7190FB17
:10137000F1F00A2190FBF1F201FB120020B941F2D9
:1013800047701D49086035E01B4800684FF47A71CA
:1013900090FBF1F0401E00EB4001C1EBC01040F2A9
:1013A000BF3101EBC0001449086023E01248006817
:1013B000642190FBF1F0401E00EBC00101EB001036
:1013C0003B2101EB80000C49086013E0FFE70A486D
:1013D00000680A2190FBF1F0401E00EB800009211B
:1013E00001EB40000449086004E003480068401E27
:1013F00001490860704700005C00002010B51048EB
:101400000068401C0E49086008460068022801D1A7
:10141000002008600A48006850B90A480078C043B4
:10142000C2B201211820FFF7C7FA0749087006E089
:10143000FF2201211820FFF7BFFA0349087010BDF1
:101440005800002054000020140000204249434866
:10145000FFF7A6FC42490860084600684FF47A711D
:10146000B0FBF1F42046FFF749FEFFF739FEFFF726
:101470003EFEFFF7BDFBFFF70FFCFFF759FC152001
:10148000FFF71EFB50213748FFF710FFFFF74AFB1D
:10149000FFF77EFB344908600320FFF76BFB002158
:1014A0001520FFF777FBE0210F20FFF773FBFFF715
:1014B0004FFB2E4908601520FFF73CFB2C490860C4
:1014C0000F20FFF737FB2B4908602B48007800EB13
:1014D00080002A4908802848007800EB80004000FE
:1014E0002749088037E02748007850B30020254975
:1014F000087025480068012806D002280AD0032871
:101500000ED004281CD111E0012020490860FFF70B
:101510000DFF15E000201D49086000F03DF80FE0C8
:1015200001201A49086000F037F809E00120174946
:10153000086000201649086003201349086000BFB6
:1015400000BF1448007820B1002012490870FFF74E
:1015500055FFFFF72BF8C6E7002D3101500500F1CC
:101560001C00002000C000403C000020380000208B
:10157000440000204000002075000020760000207C
:10158000780000207B000020040000200C000020D8
:101590005C0000207A0000202B4800680A2190FBA4
:1015A000F1F201FB1200092847D12748006890FB9F
:1015B000F1F090FBF1F201FB1200052831D1224835
:1015C0000068642190FBF1F00A2190FBF1F201FB2D
:1015D000120009281BD11C4800684FF47A7190FB57
:1015E000F1F00A2190FBF1F201FB1200052803D172
:1015F00000201549086025E0134800684FF47A710F
:1016000090FBF1F0401C48430F4908601AE00E4877
:101610000068642190FBF1F0401C48430A490860CF
:1016200010E0094800680A2190FBF1F0401C00EB33
:10163000800040000449086004E003480068401C42
:1016400001490860704700005C00002010B50446A6
:10165000302C01DB392C0DDD612C01DB7A2C09DD0E
:10166000412C01DB5A2C05DD2B2C03D02D2C01D075
:101670003A2C0FD1612C04DB7A2C02DCA4F120007F
:1016800044B20E4802780078401C0C4B18700C488D
:10169000845406E000200949087010210848FEF72C
:1016A000B9FE06480078102806DB002003490870C0
:1016B00010210348FEF7AEFE10BD000049000020D7
:1016C0006C06002010B5044640A12046FEF7C4FE7B
:1016D00050B941A0FFF7F4FD10214348FEF79AFEF0
:1016E0000020424908700EE041A12046FEF7B4FEFA
:1016F00048B943A0FFF7E4FD10213B48FEF78AFEFE
:1017000000203A49087043A12046FEF7A5FE90B993
:10171000414800684149086001203F49086040A0F5
:10172000FFF7CEFD00203149087010212E48FEF74A
:1017300071FE012010BD3CA12046FEF78DFE90B940
:10174000354800683549086002203349086037A0F1
:10175000FFF7B6FD00202549087010212248FEF74A
:1017600059FE0120E6E733A12046FEF775FE90B949
:1017700029480068294908600320274908602EA0ED
:10178000FFF79EFD00201949087010211648FEF74A
:1017900041FE0120CEE72AA12046FEF75DFE90B96A
:1017A0001D4800681D49086004201B49086025A0E9
:1017B000FFF786FD00200D49087010210A48FEF74A
:1017C00029FE0120B6E70020B4E7000041542B4376
:1017D0004C41535300000000434C415353204631C9
:1017E00037303333303300006C06002049000020CE
:1017F00041542B53545544454E54434F44450000E7
:10180000434F444520353137303231393130343966
:101810003900000041000000040000200800002002
:101820000D0A410D0A000000420000000D0A420DA1
:101830000A000000430000000D0A430D0A000000EA
:10184000440000000D0A440D0A0000004FF04070F3
:10185000E1EE100A70470000004000401000000058
:101860000080054010000000005000401100000002
:1018700000900540110000000060004012000000D0
:1018800000A005401200000000700040130000009E
:1018900000B00540130000000040024014000000AA
:1018A00000C0054014000000005002402E0000005F
:1018B00000D005402E000000006002402F00000014
:1018C00000E005402F0000000070024030000000E2
:1018D00000F005403000000000D00340460000004A
:1018E00000000640460000000010064047000000CF
:1018F0000020064048000000003006407F00000045
:1019000000400640800000000050064084000000B7
:10191000006006408C000000004000401000000005
:101920000080054010000000005000401100000041
:10193000009005401100000000600040120000000F
:1019400000A00540120000000070004013000000DD
:1019500000B00540130000000040024014000000E9
:1019600000C0054014000000005002402E0000009E
:1019700000D005402E000000006002402F00000053
:1019800000E005402F000000007002403000000021
:1019900000F005403000000000D00340430000008C
:1019A0000000064043000000001006404400000014
:1019B00000200640450000000030064058000000AE
:1019C0000040064059000000005006405C00000046
:1019D0000060064064000000007006406C000000DB
:1019E000008006406D000000009006407F0000006F
:1019F000004000400080054000500040009005403D
:101A00000060004000A005400070004000B00540AC
:101A10000040024000C005400050024000D0054098
:101A20000060024000E005400070024000F0054008
:101A300000D00340000006400010064000100640A1
:101A400000200640002006400030064000300640DE
:101A5000004006400040064000500640005006404E
:101A600000600640006006400070064000700640BE
:101A7000008006400080064000900640009006402E
:101A80000007000000060000000500000004000040
:101A90000003000000020000000100000000000040
:101AA0000000000018ED00E01CED00E020ED00E07B
:101AB00000E400E004E400E008E400E00CE400E0FE
:101AC00010E400E014E400E018E400E01CE400E0AE
:101AD00020E400E024E400E028E400E02CE400E05E
:101AE00030E400E034E400E038E400E03CE400E00E
:101AF00040E400E044E400E048E400E04CE400E0BE
:101B000050E400E054E400E058E400E05CE400E06D
:101B100060E400E064E400E068E400E06CE400E01D
:101B200070E400E074E400E078E400E07CE400E0CD
:101B300080E400E084E400E088E400E000E100E00C
:101B400004E100E008E100E00CE100E010E100E069
:101B500080E100E084E100E088E100E08CE100E069
:101B600090E100E000E200E004E200E008E200E0D2
:101B70000CE200E010E200E080E200E084E200E03D
:101B800088E200E08CE200E090E200E00068890971
:101B9000001C4E0E40420F0000201C0080841E00DE
:101BA00000802500999E36000040380000093D0065
:101BB00000803E0000004B00404B4C0000204E00D7
:101BC000808D5B0000C05D000080700000127A0014
:101BD00000007D0080969800001BB7000080BB00CD
:101BE000C0E8CE00647ADA000024F4000000FA00B5
:101BF00080A81201002D310100366E0140787D0170
:101C00004000000000000000000100003E0008004D
:101C10000000000000010000A00000000200000021
:101C20000001000034540100000000000001000029
:101C30002B700600000000000001000028000000DA
:101C4000000000000001000027000100000000006B
:101C50000001000020000000000000000001000062
:101C60005000000002000000000100001AAC00005B
:101C700000000000000100001794090000000000AF
:101C8000000100001698050000000000000100009F
:101C90001400000000000000000100001380080094
:101CA0000000000000010000A0000000080000008B
:101CB0000001000010000000000000000001000012
:101CC00028000000020000000001000040000000A9
:101CD000040000000001000060000000000000009F
:101CE000000100005D000C00000000000001000089
:101CF0005000000000000000000100004E00020043
:101D0000000000000001000041AC010000000000E4
:101D1000000100003C000000000000000001000085
:101D20003A800900000000000001000030000000BF
:101D3000000000000001000028000000000000007A
:101D40000001000027000100000000000001000069
:101D50002360060000000000000100002160080070
:101D600000000000000100001E0000000000000054
:101D7000000100001DC00400000000000001000080
:101D800050000000020000000001000018000000E8
:101D9000000000000001000014000000000000002E
:101DA00000010000600000000400000000010000CD
:101DB0000024F40030003000005A620291009100CB
:101DC00000879303D200D20000B4C40413011301AE
:101DD00000E1F50554015401000E27079501950116
:101DE000001E0000000000206C0600003C02000005
:101DF000441E00006C0600207C02000078020000F7
:101E0000514203420302180100121F3F065B4F6656
:101E10006D7D077F6F777C585E79715C8301043339
:101E20003E1733102733E8034264420A520192649A
:101E300045050A140203FF24F401FF01FF01FF011D
:041E4000FF01F000AE
:0400000500000201F4
:00000001FF
