:020000040000FA
:1000000088020020C9020000D1020000D3020000D3
:10001000D5020000D7020000D90200000000000055
:10002000000000000000000000000000DB020000F3
:10003000DD02000000000000DF020000090D0000EA
:10004000E3020000E5020000E7020000E902000010
:10005000EB020000ED020000EF020000F1020000E0
:10006000F3020000F5020000F7020000F9020000B0
:10007000FB020000FD020000FF020000010300007F
:10008000030300000503000007030000090300004C
:100090000B0300000D0300000F030000110300001C
:1000A00013030000150300001703000019030000EC
:1000B0001B0300001D0300001F03000021030000BC
:1000C000230300002503000027030000290300008C
:1000D0002B0300002D0300002F030000310300005C
:1000E000330300003503000037030000390300002C
:1000F0003B0300003D0300003F03000041030000FC
:1001000043030000450300004703000049030000CB
:100110004B0300004D0300004F030000510300009B
:10012000530300005503000057030000590300006B
:100130005B0300005D0300005F030000610300003B
:1001400063030000650300006703000081030000F3
:100150000000000000000000830300008503000091
:100160008703000089030000000000008B030000EB
:100170008D0300008F030000910300009303000033
:100180009503000097030000990300009B03000003
:100190009D0300009F030000A1030000A3030000D3
:1001A000A5030000A7030000A9030000AB030000A3
:1001B000AD030000AF030000B1030000B303000073
:1001C000B5030000B7030000B9030000BB03000043
:1001D000BD030000BF030000C1030000C303000013
:1001E000C5030000C7030000C9030000CB030000E3
:1001F000CD030000CF030000D1030000D3030000B3
:1002000000F002F800F03CF80AA090E8000C8244EC
:100210008344AAF10107DA4501D100F031F8AFF2C9
:10022000090EBAE80F0013F0010F18BFFB1A43F0D4
:10023000010318476012000080120000103A24BF2A
:1002400078C878C1FAD8520724BF30C830C144BF3B
:1002500004680C607047000000230024002500267D
:10026000103A28BF78C1FBD8520728BF30C148BF19
:100270000B6070471FB500F0C9FE1FBD10B510BD63
:1002800000F0BBF81146FFF7F5FF00F077FD00F036
:10029000D9F803B4FFF7F2FF03BC00F0E1F8000067
:1002A000EFF3108072B67047EFF310807047EFF3F2
:1002B000108062B6704730BF704780F31188704776
:1002C000EFF31180704700004548804745480047DC
:1002D000FEE7FEE7FEE7FEE7FEE7FEE7FEE7FEE7F6
:1002E000FEE7FEE7FEE7FEE7FEE7FEE7FEE7FEE7E6
:1002F000FEE7FEE7FEE7FEE7FEE7FEE7FEE7FEE7D6
:10030000FEE7FEE7FEE7FEE7FEE7FEE7FEE7FEE7C5
:10031000FEE7FEE7FEE7FEE7FEE7FEE7FEE7FEE7B5
:10032000FEE7FEE7FEE7FEE7FEE7FEE7FEE7FEE7A5
:10033000FEE7FEE7FEE7FEE7FEE7FEE7FEE7FEE795
:10034000FEE7FEE7FEE7FEE7FEE7FEE7FEE7FEE785
:10035000FEE7FEE7FEE7FEE7FEE7FEE7FEE7FEE775
:10036000FEE7FEE7FEE7FEE7FEE7FEE7FEE7FEE765
:10037000FEE7FEE7FEE7FEE7FEE7FEE7FEE7FEE755
:10038000FEE7FEE7FEE7FEE7FEE7FEE7FEE7FEE745
:10039000FEE7FEE7FEE7FEE7FEE7FEE7FEE7FEE735
:1003A000FEE7FEE7FEE7FEE7FEE7FEE7FEE7FEE725
:1003B000FEE7FEE7FEE7FEE7FEE7FEE7FEE7FEE715
:1003C000FEE7FEE7FEE7FEE7FEE7FEE7FEE7FEE705
:1003D000FEE7FEE704480549034A054B7047000065
:1003E0005D0D00000102000088000020880200204E
:1003F00088000020704770477047754600F02CF861
:10040000AE4605006946534620F00700854618B001
:1004100020B5FFF7DFFFBDE820404FF000064FF0AA
:1004200000074FF000084FF0000B21F00701AC4629
:10043000ACE8C009ACE8C009ACE8C009ACE8C00948
:100440008D46704710B50446AFF300802046BDE8E6
:100450001040FFF71EBF0000004870472800002032
:1004600001491820ABBEFEE72600020070470122BA
:1004700002FA01F1C160704732B1C0684FF0011259
:1004800002FA01F108407047406801228A4042F4B4
:100490008032104010F4803F08BF704740F4702055
:1004A0004FF4803202FA01F1884370470A4601F0A6
:1004B0000F0101236FF30F0203FA01F11143826A66
:1004C00011438162704730B4446989004FF00F0CCA
:1004D0000CFA01FC02F00F0524EA0C048D402C43B9
:1004E0004461046A03F0030324EA0C0C03FA01F1EB
:1004F0004CEA0101016202F00F018B1F032B84BF44
:1005000030BC7047C900C3694FF0300C30390CFA69
:1005100001FC02F0300223EA0C0302FA01F1194354
:10052000C16130BC704700EB411000F14001002078
:1005300003E08B6842F8043B401CCB6813F4807FD7
:1005400018BF70470828F4D370470268012303FAE4
:1005500001F111430160704710B400EB41109100AC
:1005600050F840CF0F228A4003F00F042CEA020C0F
:100570008C404CEA040CC0F800C0D0F818C0C3F39B
:1005800003242CEA020C8C404CEA040CC0F818C07E
:10059000D0F804C0C3F303142CEA020C8C404CEADC
:1005A000040CC0F804C0D0F81CC0C3F303542CEAF8
:1005B000020C8C404CEA040CC0F81CC013F4702FE1
:1005C0004FF001040DD0D0F814C0C3F302432CEA5D
:1005D00002028B401A434261026904FA01F111439D
:1005E00004E0026904FA01F122EA0101016110BC90
:1005F0007047D0F8003412F0010F14BF0B438B4347
:10060000C0F8003412F0020FD0F8202414BF1143B8
:1006100022EA0101C0F8201470472DE9F0030126F9
:100620004FF0000C0325C2F3411706FA0CF40C42FC
:1006300011D0D0F8C48F4FEA4C0405FA04F928EA27
:100640000908C0F8C48FD0F8C48F07FA04F448EA48
:100650000404C0F8C44F0CF1010C0CF0FF0CBCF109
:10066000080FE2D3D0F800C512F0010F14BF4CEA16
:10067000010C2CEA010CC0F800C5D0F804C512F03A
:10068000020F14BF4CEA010C2CEA010CC0F804C59F
:10069000D0F808C512F0040F14BF4CEA010C2CEA84
:1006A000010CC0F808C5D0F818C512F0080F14BF27
:1006B0004CEA010C2CEA010CC0F818C512F0100F1E
:1006C000D0F83C2514BF0A438A43C0F83C25D0F833
:1006D0000C2513F0010F14BF0A438A43C0F80C2500
:1006E000D0F8102513F0020F14BF0A438A43C0F854
:1006F0001025D0F8142513F0040F14BF0A438A43C1
:10070000C0F81425D0F81C2513F0080F14BF0A43B5
:100710008A43C0F81C25D0F8442513F4007F14BF89
:100720000A438A43C0F84425D0F8402513F4407F9B
:1007300014BF0A438A43C0F84025D0F82825002B6F
:100740000CBF114322EA0101C0F82815BDE8F003EF
:10075000704700000E4AC0F30741D26E01238B4060
:100760001A420C4A1ABF02EBC101496852F8311013
:10077000020AD1F82C354FF00F0C0CFA02FC00F0F5
:100780000F0023EA0C0390401843C1F82C05704772
:1007900000E00F40B011000030B50C4605460022C5
:1007A000FFF727FF21462846BDE8304000230122FD
:1007B000FFF733BF30B50C46054608230122FFF78B
:1007C0002CFF21462846BDE830400122FFF711BF2B
:1007D00030B50C4605460222FFF70BFF214628469E
:1007E000BDE8304009230122FFF717BF30B50C46A2
:1007F00005460222FFF7FDFE21462846BDE83040AF
:1008000008230122FFF709BF30B50C460546022236
:10081000FFF7EFFE21462846BDE8304008230122BD
:10082000FFF7FBBE40F821207047406810F0010040
:1008300018BF012070474160704781607047016AAE
:1008400041F0100101627047406810F0010F05D1BE
:1008500010F0120F1CBF00F01C0070470020704702
:10086000036A43F010030362002A14BF0E4A0F4AC2
:1008700002EB820301EB830302EB820292005B1E18
:10088000B3FBF2F2521EC260D0F8C02F12F0010F7B
:1008900008BF7047064A1144521CB1FBF2F1491ED1
:1008A00041F08001C1607047801A0600A0860100F7
:1008B0007F47370142EA4101016070472DE9F0416D
:1008C00004460F461546002221461548FFF7F2FF61
:1008D00039461348FFF7B1FF03211148FFF7ABFF7B
:1008E00000BF0F48FFF7A1FF0028FAD10C48FFF71F
:1008F000ABFFC6B229460A48FFF79FFF052108480B
:10090000FFF799FF00BF0648FFF78FFF0028FAD1D5
:100910000348FFF799FFC6B23046BDE8F0810000FA
:100920000000024010B5FFF7C2FC002818BF0120EC
:1009300010BD084401686FF352011143016012F0C9
:10094000020F14BFB0218C21016214BF4FF430613B
:1009500040F60C0141627047425842F00102425099
:10096000704708440168006911F0020F14BF40008D
:10097000401C70470844016811F0020F14BF510871
:10098000511E01617047002A826814BF114322EA98
:1009900001018160704721F03F031844036813F0A0
:1009A000020F18BF520803699A1A11F0010F14BF01
:1009B000C2618261704700002DE9F003AF4D02462D
:1009C0002868AF4B1840A0F18053B3F5A02359D04D
:1009D00002F03809DFF8AC82C2F38414B9F1100FC9
:1009E00025D0B9F1300F04BF47F230504FF4001357
:1009F0000DD04FF03800904304BF4FF40040C301C6
:100A000005D012F0380F1CBF0020034613D09E4FB4
:100A100012F4605F4FF0000618BF00222CD057F888
:100A2000324044457DD307EBC2025268E1E0002327
:100A300040461524EBE7A4F10900122822D293487E
:100A4000D5F87CC04FF04C7350F824002CF01C0CEF
:100A5000072CA8BF4CF0100CC5F87CC02E6D4FF4CD
:100A6000002C16F4807FD2D1BCF1010C0AD02E6D7F
:100A700016F4807FF8D0CAE712F0380F18BFB9F12A
:100A8000100F04D0BDE8F0034FF000007047C2F330
:100A90000268DFF8FCC14FF0000257F83290E145E0
:100AA00003D307EBC202526803E0521C062AF4D3B8
:100AB0003246C5F8C020D5F8B020DFF8D8C102EA28
:100AC0000C0242F00042C5F8B020DFF8CCC1A4F11E
:100AD00009024C1E5CF828C0A444BCFBF1FCD5F80C
:100AE000B0101943C5F8B01008EBC80101EB410480
:100AF0006A4902EB420201EBC40101EB8204646823
:100B0000C5F86441D5F864416FF0FF0808EB0C2C80
:100B100044EA0C0CC5F864C151F82210D5F86021E4
:100B200000E061E002F400021143C5F86011D5F85D
:100B30006011D5F86021C1F38921C2F30904D5F809
:100B40006421C2F3042202F1010CD5F8642102F001
:100B50001F02521CB0FBF2F04A09C2F100084443E4
:100B6000424301EB481104EB5212484302EB902040
:100B7000B0FBFCF041080846002257F832C084451B
:100B800003D307EBC200466802E0521C062AF4D3E6
:100B9000C5F8C060D5F8600110F4000F1DBFD5F88E
:100BA000B00040F08040C5F8B000D5F8600104BF47
:100BB00040F40000C5F860014FF40040D5F868210A
:100BC00012F0010F02D1401E0028F7DC002808BFF8
:100BD000002148D0D5F8B000184340F0010040F0A3
:100BE0001040C5F8B0003EE0521C062AFFF417AFD3
:100BF0003246C5F8C020D5F8602122F40002C5F8BD
:100C00006021D5F8B020DFF898C002EA0C0242F06B
:100C10000042C5F8B020002908BF4FF0000C0AD0F0
:100C2000B0FBF1FCBCF1000F18BFACF1010C0CF1F2
:100C30000101B0FBF1F10846002257F8324084422E
:100C400003D307EBC200466802E0521C062AF4D325
:100C5000C5F8C060D5F8B00043EA8C22104340F0DC
:100C60000040C5F8B000D5F8B00020F47000C5F819
:100C7000B000BDE8F00308467047000000E00F40F8
:100C80000000FF700024F40064140000481200000B
:100C900040787D0100FC0FE040120000B41200001B
:100CA000FF0300EF03490A6E22F4F01210430866B6
:100CB0007047000000E00F40C0F307230749C0B2AF
:100CC000194401F07043C1F3130143EA411141EAB1
:100CD000800040F0007001220260704700E60F4083
:100CE0004FF0E020016941F00501016170474FF0CC
:100CF000E020016941F00201016170474FF0E021FD
:100D0000401E48617047000010B51148007828B9AE
:100D1000002201210F48FFF785FD04E00122114662
:100D20000C48FFF77FFD0A48007808B9012000E071
:100D3000002007490870084801880088401C064ABE
:100D40001080032902DD03201146088010BD000039
:100D5000000000200050024002000020044800680B
:100D600040F4700002490860024803490860704777
:100D700088ED00E00024F400240000208B498C481A
:100D8000FFF71AFE8B4908608B48FFF795FF01219A
:100D90008A48FFF70FFD874909684808FFF7AEFF4B
:100DA000FFF79EFFFFF7A3FFFFF7BCFD0020FFF753
:100DB00079FF8348FFF780FF7F48001DFFF77CFF26
:100DC0008048FFF7C7FC20217F48FFF71DFD022266
:100DD000D1017E48FFF7ADFD46F2A8124FF48071B5
:100DE0007A48FFF7C7FD4FF480717848FFF7B9FDE7
:100DF0004408224640F207117448FFF7CCFD012257
:100E000080217248FFF7BFFD4FF480716F48FFF7F4
:100E1000A3FD6F48FFF750FF6748001FFFF74CFF27
:100E20006C48FFF797FC6C48FFF794FC04216B4873
:100E3000FFF7DCFC08216948FFF7CAFC01225D4886
:100E400001686748FFF70CFD6548FFF7F8FC0022D2
:100E500003211820FFF732FD62490870FF220C21A0
:100E60002220FFF72BFD5F49087000220D21222070
:100E7000FFF724FD5B49087000220E212220FFF7B6
:100E80001DFD5849087028E05748027A05212220A4
:100E9000FFF714FD534908705448027806212220B8
:100EA000FFF70CFD4F4908705048027801211820C7
:100EB000FFF704FD4B4908704C48007840104B493F
:100EC00008700846007808B9802008704848007803
:100ED000082802DB0020464908704648008803289D
:100EE000D2DB4148027805212220FFF7E7FC3D498B
:100EF0000870012206212220FFF7E0FC3949087022
:100F0000FF2201211820FFF7D9FC002280212F4861
:100F1000FFF739FD3848FFF7CFFE2748401EFFF79F
:100F2000CBFE02213548FFF737FC00231A46032188
:100F30003348FFF7C8FA6223002203213048FFF745
:100F40000BFB03212E48FFF700FB03212C48FFF782
:100F50008EFA2AE003212A48FFF7A8FA00BF0022F0
:100F600003212748FFF788FA0028F8D003212448F6
:100F7000FFF77DFA234A03212148FFF7D4FA2148DD
:100F80000068C0F347202049087017480978425C80
:100F900005212220FFF792FC124908700122062148
:100FA0002220FFF78BFC0F490870D3E7002D310199
:100FB000800600F104000020050800F00050024007
:100FC000004000F0061409000010064000800240B6
:100FD000002000F002080100020C01000050004057
:100FE000000002400E000020110000200D00002033
:100FF0001000002002000020003800F000400240F5
:1010000000800340080000200C0000204FF04070DA
:10101000E1EE100A704700000040004010000000A0
:10102000008005401000000000500040110000004A
:101030000090054011000000006000401200000018
:1010400000A00540120000000070004013000000E6
:1010500000B00540130000000040024014000000F2
:1010600000C0054014000000005002402E000000A7
:1010700000D005402E000000006002402F0000005C
:1010800000E005402F00000000700240300000002A
:1010900000F005403000000000D003404600000092
:1010A0000000064046000000001006404700000017
:1010B0000020064048000000003006407F0000008D
:1010C0000040064080000000005006408400000000
:1010D000006006408C00000000400040100000004E
:1010E000008005401000000000500040110000008A
:1010F0000090054011000000006000401200000058
:1011000000A0054012000000007000401300000025
:1011100000B0054013000000004002401400000031
:1011200000C0054014000000005002402E000000E6
:1011300000D005402E000000006002402F0000009B
:1011400000E005402F000000007002403000000069
:1011500000F005403000000000D0034043000000D4
:10116000000006404300000000100640440000005C
:1011700000200640450000000030064058000000F6
:101180000040064059000000005006405C0000008E
:101190000060064064000000007006406C00000023
:1011A000008006406D000000009006407F000000B7
:1011B0000040004000800540005000400090054085
:1011C0000060004000A005400070004000B00540F5
:1011D0000040024000C005400050024000D00540E1
:1011E0000060024000E005400070024000F0054051
:1011F00000D00340000006400010064000100640EA
:101200000020064000200640003006400030064026
:101210000040064000400640005006400050064096
:101220000060064000600640007006400070064006
:101230000080064000800640009006400090064076
:1012400000688909001C4E0E40420F0000201C005F
:1012500080841E0000802500999E360000403800E2
:1012600000093D0000803E0000004B00404B4C0058
:1012700000204E00808D5B0000C05D00008070008B
:1012800000127A0000007D0080969800001BB700D5
:101290000080BB00C0E8CE00647ADA000024F400CD
:1012A0000000FA0080A81201002D310100366E0105
:1012B00040787D01400000000000000000010000B7
:1012C0003E0008000000000000010000A000000037
:1012D0000200000000010000345401000000000082
:1012E000000100002B70060000000000000100005B
:1012F000280000000000000000010000270001009D
:1013000000000000000100002000000000000000BC
:101310000001000050000000020000000001000079
:101320001AAC000000000000000100001794090042
:1013300000000000000100001698050000000000F9
:101340000001000014000000000000000001000087
:10135000138008000000000000010000A000000051
:101360000800000000010000100000000000000064
:101370000001000028000000020000000001000041
:1013800040000000040000000001000060000000B8
:1013900000000000000100005D000C0000000000E3
:1013A00000010000500000000000000000010000EB
:1013B0004E000200000000000001000041AC0100EE
:1013C00000000000000100003C00000000000000E0
:1013D000000100003A800900000000000001000048
:1013E00030000000000000000001000028000000A4
:1013F00000000000000100002700010000000000C4
:101400000001000023600600000000000001000051
:101410002160080000000000000100001E00000024
:1014200000000000000100001DC0040000000000DA
:101430000001000050000000020000000001000058
:10144000180000000000000000010000140000006F
:101450000000000000010000600000000400000027
:10146000000100000024F40030003000005A620245
:101470009100910000879303D200D20000B4C4040D
:101480001301130100E1F50554015401000E270773
:1014900095019501B4140000000000202800000010
:1014A0003C020000DC140000280000206002000064
:1014B00058020000000000000000000000000000D2
:1014C00000800000003F065B4F666D7D077F6F77F1
:0C14D0007C585E79715C00000024F40080
:0400000500000201F4
:00000001FF
