:020000040000FA
:10000000F8020020D9020000E1020000E302000033
:10001000E5020000E7020000E90200000000000025
:10002000000000000000000000000000EB020000E3
:10003000ED02000000000000EF020000090F0000C8
:10004000F3020000F5020000F7020000F9020000D0
:10005000FB02000091120000FF02000001030000FB
:10006000030300000503000007030000090300006C
:100070000B0300000D0300000F030000110300003C
:10008000130300001503000017030000190300000C
:100090001B0300001D0300001F03000021030000DC
:1000A00023030000250300002703000029030000AC
:1000B0002B0300002D0300002F030000310300007C
:1000C000330300003503000037030000390300004C
:1000D0003B0300003D0300003F030000410300001C
:1000E00043030000450300004703000049030000EC
:1000F0004B0300004D0300004F03000051030000BC
:10010000530300005503000057030000590300008B
:100110005B0300005D0300005F030000610300005B
:10012000630300006503000067030000690300002B
:100130006B0300006D0300006F03000071030000FB
:1001400073030000750300007703000091030000B3
:100150000000000000000000930300009503000071
:100160009703000099030000000000009B030000BB
:100170009D0300009F030000A1030000A3030000F3
:10018000A5030000A7030000A9030000AB030000C3
:10019000AD030000AF030000B1030000B303000093
:1001A000B5030000B7030000B9030000BB03000063
:1001B000BD030000BF030000C1030000C303000033
:1001C000C5030000C7030000C9030000CB03000003
:1001D000CD030000CF030000D1030000D3030000D3
:1001E000D5030000D7030000D9030000DB030000A3
:1001F000DD030000DF030000E1030000E303000073
:1002000000F002F800F045F80AA090E8000C8244E3
:100210008344AAF10107DA4501D100F03AF8AFF2C0
:10022000090EBAE80F0013F0010F18BFFB1A43F0D4
:1002300001031847A81A0000C81A0000103A24BF8A
:1002400078C878C1FAD8520724BF30C830C144BF3B
:1002500004680C607047000000230024002500267D
:10026000103A28BF78C1FBD8520728BF30C148BF19
:100270000B6070471FB501F067FA00F081F90400C8
:100280000020002101F04AFA401C60601FBD10B53B
:1002900010BD00F04FF91146FFF7ECFF01F028FA0E
:1002A00000F072F903B4FFF7F2FF03BC00F076F937
:1002B000EFF3108072B67047EFF310807047EFF3E2
:1002C000108062B6704730BF704780F31188704766
:1002D000EFF31180704700004548804745480047CC
:1002E000FEE7FEE7FEE7FEE7FEE7FEE7FEE7FEE7E6
:1002F000FEE7FEE7FEE7FEE7FEE7FEE7FEE7FEE7D6
:10030000FEE7FEE7FEE7FEE7FEE7FEE7FEE7FEE7C5
:10031000FEE7FEE7FEE7FEE7FEE7FEE7FEE7FEE7B5
:10032000FEE7FEE7FEE7FEE7FEE7FEE7FEE7FEE7A5
:10033000FEE7FEE7FEE7FEE7FEE7FEE7FEE7FEE795
:10034000FEE7FEE7FEE7FEE7FEE7FEE7FEE7FEE785
:10035000FEE7FEE7FEE7FEE7FEE7FEE7FEE7FEE775
:10036000FEE7FEE7FEE7FEE7FEE7FEE7FEE7FEE765
:10037000FEE7FEE7FEE7FEE7FEE7FEE7FEE7FEE755
:10038000FEE7FEE7FEE7FEE7FEE7FEE7FEE7FEE745
:10039000FEE7FEE7FEE7FEE7FEE7FEE7FEE7FEE735
:1003A000FEE7FEE7FEE7FEE7FEE7FEE7FEE7FEE725
:1003B000FEE7FEE7FEE7FEE7FEE7FEE7FEE7FEE715
:1003C000FEE7FEE7FEE7FEE7FEE7FEE7FEE7FEE705
:1003D000FEE7FEE7FEE7FEE7FEE7FEE7FEE7FEE7F5
:1003E000FEE7FEE704480549034A054B7047000055
:1003F0007112000001020000F8000020F802002045
:10040000F80000202DE9F0410E460546002400E0EA
:10041000641C285D00F075F80746305D00F071F847
:10042000381A02D1295D0029F2D1BDE8F0814FF0E0
:10043000000200B5134694469646203922BFA0E834
:100440000C50A0E80C50B1F12001BFF4F7AF090740
:1004500028BFA0E80C5048BF0CC05DF804EB890031
:1004600028BF40F8042B08BF704748BF20F8022B74
:1004700011F0804F18BF00F8012B70474FF0013C7E
:1004800050F8042B51F8043B9A4221D1A2EB0C0303
:10049000934313EACC1317D150F8042B51F8043BC3
:1004A0009A4215D1A2EB0C03934313EACC130BD160
:1004B00050F8042B51F8043B9A4209D1A2EB0C03EB
:1004C000934313EACC13DBD04FF00000704700BF1A
:1004D000D01A01BAB1FA81F101F0180122FA01F043
:1004E000CB40C1F12001DBB2C0B2C01A2CFA01F33B
:1004F000D11A914311EAC311E6D170477047704792
:10050000704710B5044600F00DF80068005DC006A5
:1005100002D504F1200010BD204610BD00487047F0
:100520009400002010B500F02BF8001D10BD00BF96
:10053000ED1100007546FFF7F1FFAE460500694674
:10054000534620F00700854618B020B5FFF74AFF54
:10055000BDE820404FF000064FF000074FF00008C4
:100560004FF0000B21F00701AC46ACE8C009ACE845
:10057000C009ACE8C009ACE8C0098D46704700006E
:1005800000487047B400002010B50446AFF3008067
:100590002046BDE81040FFF785BE00000149182045
:1005A000ABBEFEE7260002007047002100E0491CB8
:1005B0008142FCD37047D0F8003412F0010F14BF11
:1005C0000B438B43C0F8003412F0020FD0F8202404
:1005D00014BF114322EA0101C0F8201470472DE92D
:1005E000F00301264FF0000C0325C2F3411706FA71
:1005F0000CF40C4211D0D0F8C48F4FEA4C0405FA29
:1006000004F928EA0908C0F8C48FD0F8C48F07FAA3
:1006100004F448EA0404C0F8C44F0CF1010C0CF0D7
:10062000FF0CBCF1080FE2D3D0F800C512F0010FA7
:1006300014BF4CEA010C2CEA010CC0F800C5D0F83C
:1006400004C512F0020F14BF4CEA010C2CEA010C95
:10065000C0F804C5D0F808C512F0040F14BF4CEA66
:10066000010C2CEA010CC0F808C5D0F818C512F02E
:10067000080F14BF4CEA010C2CEA010CC0F818C595
:1006800012F0100FD0F83C2514BF0A438A43C0F87B
:100690003C25D0F80C2513F0010F14BF0A438A4300
:1006A000C0F80C25D0F8102513F0020F14BF0A4330
:1006B0008A43C0F81025D0F8142513F0040F14BF96
:1006C0000A438A43C0F81425D0F81C2513F0080FFC
:1006D00014BF0A438A43C0F81C25D0F8442513F4FC
:1006E000007F14BF0A438A43C0F84425D0F8402550
:1006F00013F4407F14BF0A438A43C0F84025D0F862
:100700002825002B0CBF114322EA0101C0F828154F
:10071000BDE8F003704700000E4AC0F30741D26EF7
:1007200001238B401A420C4A1ABF02EBC1014968EF
:1007300052F83110020AD1F82C354FF00F0C0CFA98
:1007400002FC00F00F0023EA0C0390401843C1F8AC
:100750002C05704700E00F40EC18000050F8210015
:10076000704730B50C4605460022FFF724FF2146AE
:100770002846BDE8304008230122FFF730BF30B5DE
:100780000C46054608230122FFF729FF214628468B
:10079000BDE830400122FFF70EBF30B50C460546DC
:1007A0000222FFF708FF21462846BDE83040092312
:1007B0000122FFF714BF30B50C4605460222FFF7B1
:1007C000FAFE21462846BDE8304008230122FFF703
:1007D00006BF30B50C4605460222FFF7ECFE214667
:1007E0002846BDE8304008230122FFF7F8BE40F854
:1007F000212070470146084609E00278612A05DB9E
:1008000002787A2A02DC0278203A0270401C0278D0
:10081000002AF2D1704700002DE9F04104460F464E
:10082000154600BF184800F031F80028FAD1002220
:100830002146154800F070F83946134800F02EF8AC
:100840000321114800F028F800BF0F4800F01EF8FF
:100850000028FAD10C4800F028F8C6B229460A4808
:1008600000F01CF80521084800F016F800BF064803
:1008700000F00CF80028FAD1034800F016F8C6B2D0
:100880003046BDE8F081000000000240406810F0F2
:10089000010018BF012070474160704781607047B8
:1008A000016A41F0100101627047406810F0010FC9
:1008B00005D110F0120F1CBF00F01C007047002083
:1008C00070470000036A43F010030362002A14BF5C
:1008D0000E4A0F4A02EB820301EB830302EB820212
:1008E00092005B1EB3FBF2F2521EC260D0F8C02F22
:1008F00012F0010F08BF7047064A1144521CB1FBA9
:10090000F2F1491E41F08001C1607047801A060073
:10091000A08601007F47370142EA4101016070472C
:100920001649042804BF086840F4803018D0052810
:1009300004BF086840F4003012D0062812D00F28F7
:1009400015D0102838BF7047103800F01F01012261
:1009500002FA01F142090A4850F82200016070478A
:1009600008607047086840F48020086070474FF0C6
:10097000E020016941F002010161704724ED00E0CF
:10098000381A000010B5FFF79AFC002818BF0120A4
:1009900010BD0000054A20F0030151580968800786
:1009A000C00E21FA00F0C0B2704700009C19000090
:1009B00006480068064A00F4E061002052F8203042
:1009C0008B421CBF401C0828F8D370470CED00E098
:1009D0007C190000044951F82000044940F0FD70E2
:1009E00040F08060086070477C1900000CED00E06A
:1009F000FFF76EBC084A20F00303D2581368800743
:100A0000C00E4FF0FF0C0CFA00FC23EA0C0301FAB5
:100A100000F01843106070479C19000010B5194889
:100A200000F034FA00BF174800F044FA0028FAD06A
:100A30001448C01C00F02AFA00BF1248C01C00F085
:100A400039FA0028F9D00F48C01D00F01FFA00BF86
:100A50000C48C01D00F02EFA0028F9D003210A48E6
:100A6000FFF78DFE03210948FFF789FE032108489F
:100A7000FFF777FE0A23012203210548FFF7AFFDA8
:100A800010BD0000050800F0005002400040064084
:100A900000D0034010B51E4800F0F8F91D4800F0E2
:100AA000F5F91D48FFF738FE1C48FFF735FE042115
:100AB0001B48FFF780FE08211948FFF76EFE012250
:100AC000184801681848FFF7FDFE1748FFF7E8FED1
:100AD000FF220C212220FFF79FFE044600220D2159
:100AE0002220FFF799FE044600220E212220FFF764
:100AF00093FE0446002203211820FFF78DFE0446D2
:100B0000FF2201211820FFF787FE044610BD0000D8
:100B1000002000F0010800F002080100020C0100B2
:100B200000500040140000200000024010B514489E
:100B300000F0ACF9134800F0A9F900BF114800F02B
:100B4000B9F90028FAD00120FFF7E6FD40F2014094
:100B5000FFF7E2FD03214FF04020FFF73AFE60234C
:100B60004FF4E13208480168084800F0E4FC202214
:100B70000421064800F016FD05A000F021FD10BD7F
:100B8000001800F0000800F01400002000C0004031
:100B900048656C6C6F2C20776F726C6421000000CC
:100BA0002DE9F003AF4D02462868AF4B1840A0F185
:100BB0008053B3F5A02359D002F03809DFF8AC8296
:100BC000C2F38414B9F1100F25D0B9F1300F04BF6E
:100BD00047F230504FF400130DD04FF038009043DF
:100BE00004BF4FF40040C30105D012F0380F1CBF02
:100BF0000020034613D09E4F12F4605F4FF00006B2
:100C000018BF00222CD057F8324044457DD307EB63
:100C1000C2025268E1E0002340461524EBE7A4F14C
:100C20000900122822D29348D5F87CC04FF04C73AB
:100C300050F824002CF01C0C072CA8BF4CF0100C12
:100C4000C5F87CC02E6D4FF4002C16F4807FD2D1F5
:100C5000BCF1010C0AD02E6D16F4807FF8D0CAE7E3
:100C600012F0380F18BFB9F1100F04D0BDE8F0032F
:100C70004FF000007047C2F30268DFF8FCC14FF08C
:100C8000000257F83290E14503D307EBC2025268E5
:100C900003E0521C062AF4D33246C5F8C020D5F82A
:100CA000B020DFF8D8C102EA0C0242F00042C5F8D9
:100CB000B020DFF8CCC1A4F109024C1E5CF828C0BA
:100CC000A444BCFBF1FCD5F8B0101943C5F8B01032
:100CD00008EBC80101EB41046A4902EB420201EB57
:100CE000C40101EB82046468C5F86441D5F864412D
:100CF0006FF0FF0808EB0C2C44EA0C0CC5F864C13B
:100D000051F82210D5F8602100E061E002F4000201
:100D10001143C5F86011D5F86011D5F86021C1F311
:100D20008921C2F30904D5F86421C2F3042202F137
:100D3000010CD5F8642102F01F02521CB0FBF2F046
:100D40004A09C2F100084443424301EB481104EB55
:100D50005212484302EB9020B0FBFCF041080846D9
:100D6000002257F832C0844503D307EBC20046681F
:100D700002E0521C062AF4D3C5F8C060D5F8600121
:100D800010F4000F1DBFD5F8B00040F08040C5F84A
:100D9000B000D5F8600104BF40F40000C5F8600160
:100DA0004FF40040D5F8682112F0010F02D1401E27
:100DB0000028F7DC002808BF002148D0D5F8B00093
:100DC000184340F0010040F01040C5F8B0003EE08C
:100DD000521C062AFFF417AF3246C5F8C020D5F8DA
:100DE000602122F40002C5F86021D5F8B020DFF8B8
:100DF00098C002EA0C0242F00042C5F8B020002977
:100E000008BF4FF0000C0AD0B0FBF1FCBCF1000FA2
:100E100018BFACF1010C0CF10101B0FBF1F1084677
:100E2000002257F83240844203D307EBC2004668E1
:100E300002E0521C062AF4D3C5F8C060D5F8B00011
:100E400043EA8C22104340F00040C5F8B000D5F8CA
:100E5000B00020F47000C5F8B000BDE8F00308460B
:100E60007047000000E00F400000FF700024F40015
:100E7000AC1C0000901A000040787D0100FC0FE0DF
:100E8000881A0000FC1A0000FF0300EFC0F30723DC
:100E90000749C0B2194401F07043C1F3130143EA9A
:100EA000411141EA800040F0007001220260704769
:100EB00000E60F40C0F307220849C0B2114401F018
:100EC0007042C1F3130142EA411141EA800040F04F
:100ED00000700068002818BF0120704700EA0F402A
:100EE0004FF0E020016941F00501016170474FF0CA
:100EF000E020016941F00201016170474FF0E021FB
:100F0000401E48617047000010B5A348008828B112
:100F1000A1480088401EA049088005E064209E4941
:100F2000088001209D4908709D48008828B19C4890
:100F30000088401E9A49088005E0C820984908802A
:100F40000120984908709848008828B19648008880
:100F5000401E9549088006E04FF4FA7092490880D7
:100F60000120924908709248008828B19048008872
:100F7000401E8F49088005E00A208D490880012025
:100F80008C49087001218C48FFF7E8FB00287DD1CF
:100F900001208A4908600020864908707F4908704E
:100FA000012211468648FFF722FC9DE08548006833
:100FB0000A21B0FBF1F084490C5C22460521222075
:100FC000FFF72AFC81490870012206212220FFF741
:100FD00023FC7E49087047F23050FFF7E6FA794863
:100FE00000680A21B0FBF1F201FB120076490C5CAB
:100FF000224605212220FFF70FFC744908700222C7
:1010000006212220FFF708FC7049087047F2305093
:10101000FFF7CBFA6E4800680A21B0FBF1F06A498D
:101020000C5C224605212220FFF7F6FB6749087079
:10103000082206212220FFF7EFFB6449087047F2DF
:101040003050FFF7B2FA624800680A21B0FBF1F2B3
:1010500001FB12005C490C5C224605212220FFF7AF
:10106000DBFB5A490870102206212220FFF7D4FB2F
:101070005649087047F23050FFF797FA5548006814
:101080000A21B0FBF1F050490C5C00E034E022464C
:1010900005212220FFF7C0FB4C49087040220621A1
:1010A0002220FFF7B9FB4949087047F23050FFF79B
:1010B0007CFA484800680A21B0FBF1F201FB1200FB
:1010C00041490C5C224605212220FFF7A5FB3F4940
:1010D0000870802206212220FFF79EFB3B49087002
:1010E00047F23050FFF761FA01213348FFF736FB32
:1010F00000283FF45BAF04E0002201213048FFF7F5
:1011000076FB3548006828B133480068401E3249F4
:10111000086040E04FF47A702F4908602D4800685D
:101120002E49096808442B4908602C4800680128AA
:1011300018D1084600683C282DD1002008602448BA
:101140000068401C224908603C2824D10020086027
:101150001C480068401C1B49086064281BD1002003
:10116000086018E01B480068401CA0B93B201949E2
:10117000086017480068401E15490860401C50B9B7
:101180003B2008600F480068401E0E490860401C64
:1011900008B96320086010BD02000020090000208B
:1011A000040000200A000020060000200B000020A0
:1011B000000000200800002000D00340880000202C
:1011C0000040064044000020280000200C000020C1
:1011D000400000203C000020480000208C0000203F
:1011E00010B54FF47A701B4908601B4800684FF433
:1011F0007A71B0FBF1F42046FFF780FEFFF770FE36
:10120000FFF775FE1520FFF78BFB5021134800F008
:10121000CEF9FFF7B7FBFFF7EBFB1149086003209E
:10122000FFF7D8FBE0211520FFF7E4FB03210F2097
:10123000FFF7E0FBFFF7BCFB0A4908601520FFF74A
:10124000A9FB094908600F20FFF7A4FB07490860C4
:1012500010BD0000480000201400002000C0004025
:1012600024000020200000201C0000201800002086
:101270000448006840F470000249086002480349CD
:101280000860704788ED00E00024F4009000002022
:1012900070B5BEB0C8210CA8FFF7C9F8002486A11C
:1012A00003C9CDE90A0186A30FCB06AD0FC588A2FD
:1012B00007CA03AB07C389A207CA8DE8070001214B
:1012C000894800F078F906463146874800F06DF904
:1012D00010E0854800F01CF9C2B22046641C0CA93D
:1012E0000A54022211468148FFF781FA4FF47A70BE
:1012F000FFF75BF97C4800F019F90028E9D10CA848
:10130000FFF778FA7A490CA8FFF77CF820B94FF07C
:10131000FF307849086023E07549891C0CA8FFF765
:1013200071F818B900207349086019E07049091D67
:101330000CA8FFF767F818B901206E4908600FE0A4
:101340006B49891D0CA8FFF75DF848B90120694970
:1013500008600020684908606849086068490860BA
:101360009BE0664800680A21B0FBF1F065490D5C1E
:101370002A4605212220FFF74FFA6349087001220F
:1013800006212220FFF748FA5F49087047F23050E3
:10139000FFF70BF9594800680A21B0FBF1F201FB95
:1013A000120058490D5C2A4605212220FFF734FA25
:1013B00055490870022206212220FFF72DFA5249D2
:1013C000087047F23050FFF7F0F84D4800680A21E6
:1013D000B0FBF1F04B490D5C2A4605212220FFF7B6
:1013E0001BFA49490870082206212220FFF714FA47
:1013F0004549087047F23050FFF7D7F84048006879
:101400000A21B0FBF1F201FB12003E490D5C2A46B5
:1014100005212220FFF700FA3B490870102206211F
:101420002220FFF7F9F93849087047F23050FFF7EA
:10143000BCF8314800680A21B0FBF1F031490D5C7D
:101440002A4605212220FFF7E7F92F49087040229C
:1014500006212220FFF7E0F92B49087047F23050AF
:10146000FFF7A3F8244800680A21B0FBF1F201FB62
:10147000120024490D5C2A4605212220FFF7CCF9F1
:1014800021490870802206212220FFF7C5F91E4954
:10149000087047F23050FFF788F802211B48FFF729
:1014A0005DF900283FF45DAF002202210F48FFF7ED
:1014B0009EF93EB070BD00004154434C415353006F
:1014C000415453545544454E54434F444500000045
:1014D000434C41535330333330320000434F444583
:1014E000303930323539000000C00040004006403D
:1014F000750000208C0000203C00002044000020EB
:1015000040000020280000200C00002000D00340F4
:10151000816911F0100F0CBF00684FF0FF30704769
:10152000826912F0200FFBD10160704780690121B0
:1015300021EA10107047D0F818C01CF0080FFAD13B
:10154000D0F82CC02CF0100CC0F82CC0D0F830C053
:101550002CF0010C2CF4407CC0F830C0D0F830C026
:10156000B1EB021F34BF4CF0200C2CF0200CC0F863
:1015700030C038BF5208C900B1FBF2F1491C49081C
:101580008A09426201F03F018162C36200218161E8
:10159000C16A41F01001C162016B40F20132114396
:1015A0000163704711434163704741647047826B28
:1015B000114381637047002914BF006CC06B7047F2
:1015C00010B5044604E014F8011B0348FFF7A8FF18
:1015D00020780028F7D110BD00C0004000247AE038
:1015E00002213D48FFF7BAF800B90126012E17D1B4
:1015F00002213948FFF7B2F890B10026681C062195
:1016000090FBF1F201FB1205042D09D0052D07D046
:101610000024012031490870022D01D102200870F8
:101620002F48007830B100202D490870641C0A2C26
:1016300000D100240120A040C043C2B201211820E3
:10164000FFF7EAF827490870274800680A21B0FB2D
:10165000F1F026490F5C3A4605212220FFF7DCF81D
:1016600020490870012206212220FFF7D5F81D49E4
:10167000087047F23050FEF798FF1B4800680A21B7
:10168000B0FBF1F201FB120018490F5C3A4605214C
:101690002220FFF7C1F813490870022206212220F8
:1016A000FFF7BAF80F49087047F23050FEF77DFF98
:1016B0000E48025D05212220FFF7AEF809490870A7
:1016C000042206212220FFF7A7F80649087047F2F6
:1016D0003050FEF76AFF83E700D00340100000207F
:1016E000090000200C0000203C0000202800002001
:1016F00007490848FFF754FA07490860FFF78EF9D1
:10170000FFF7C8F9FFF712FAFFF76AFDFFF766FF68
:10171000002D3101500500F11400002010B5002902
:101720000AD00878002807D005487844FEF7A6FEBE
:10173000002801D0002010BD0248784410BD0000F0
:10174000D2050000CA0500004FF04070E1EE100A1B
:10175000704700000040004010000000008005407D
:1017600010000000005000401100000000900540F3
:1017700011000000006000401200000000A00540C1
:1017800012000000007000401300000000B005408F
:1017900013000000004002401400000000C005409B
:1017A00014000000005002402E00000000D0054050
:1017B0002E000000006002402F00000000E0054005
:1017C0002F000000007002403000000000F00540D3
:1017D0003000000000D0034046000000000006403A
:1017E00046000000001006404700000000200640B0
:1017F00048000000003006407F0000000040064026
:101800008000000000500640840000000060064098
:101810008C000000004000401000000000800540E7
:101820001000000000500040110000000090054032
:1018300011000000006000401200000000A0054000
:1018400012000000007000401300000000B00540CE
:1018500013000000004002401400000000C00540DA
:1018600014000000005002402E00000000D005408F
:101870002E000000006002402F00000000E0054044
:101880002F000000007002403000000000F0054012
:101890003000000000D0034043000000000006407C
:1018A00043000000001006404400000000200640F5
:1018B000450000000030064058000000004006408F
:1018C00059000000005006405C0000000060064027
:1018D00064000000007006406C00000000800640BC
:1018E0006D000000009006407F00000000400040B6
:1018F000008005400050004000900540006000401E
:1019000000A005400070004000B0054000400240CB
:1019100000C005400050024000D005400060024079
:1019200000E005400070024000F0054000D0034098
:10193000000006400010064000100640002006404F
:1019400000200640003006400030064000400640BF
:10195000004006400050064000500640006006402F
:10196000006006400070064000700640008006409F
:1019700000800640009006400090064000070000EE
:101980000006000000050000000400000003000045
:101990000002000000010000000000000000000044
:1019A00018ED00E01CED00E020ED00E000E400E0B8
:1019B00004E400E008E400E00CE400E010E400E0EF
:1019C00014E400E018E400E01CE400E020E400E09F
:1019D00024E400E028E400E02CE400E030E400E04F
:1019E00034E400E038E400E03CE400E040E400E0FF
:1019F00044E400E048E400E04CE400E050E400E0AF
:101A000054E400E058E400E05CE400E060E400E05E
:101A100064E400E068E400E06CE400E070E400E00E
:101A200074E400E078E400E07CE400E080E400E0BE
:101A300084E400E088E400E000E100E004E100E08C
:101A400008E100E00CE100E010E100E080E100E0EE
:101A500084E100E088E100E08CE100E090E100E05A
:101A600000E200E004E200E008E200E00CE200E056
:101A700010E200E080E200E084E200E088E200E0C2
:101A80008CE200E090E200E000688909001C4E0E44
:101A900040420F0000201C0080841E0000802500B2
:101AA000999E36000040380000093D0000803E004D
:101AB00000004B00404B4C0000204E00808D5B002E
:101AC00000C05D000080700000127A0000007D0000
:101AD00080969800001BB7000080BB00C0E8CE00D5
:101AE000647ADA000024F4000000FA0080A81201F1
:101AF000002D310100366E0140787D01400000006C
:101B000000000000000100003E000800000000008E
:101B100000010000A0000000020000000001000021
:101B20003454010000000000000100002B7006008A
:101B3000000000000001000028000000000000007C
:101B4000000100002700010000000000000100006B
:101B50002000000000000000000100005000000014
:101B600002000000000100001AAC000000000000AC
:101B700000010000179409000000000000010000AF
:101B8000169805000000000000010000140000008D
:101B900000000000000100001380080000000000A9
:101BA00000010000A000000008000000000100008B
:101BB00010000000000000000001000028000000EC
:101BC00002000000000100004000000004000000CE
:101BD00000010000600000000000000000010000A3
:101BE0005D000C000000000000010000500000003B
:101BF00000000000000100004E0002000000000094
:101C00000001000041AC01000000000000010000E4
:101C10003C00000000000000000100003A800900C4
:101C20000000000000010000300000000000000083
:101C3000000100002800000000000000000100007A
:101C400027000100000000000001000023600600E2
:101C500000000000000100002160080000000000FA
:101C6000000100001E000000000000000001000054
:101C70001DC0040000000000000100005000000032
:101C80000200000000010000180000000000000039
:101C9000000100001400000000000000000100002E
:101CA0006000000004000000000100000024F400B7
:101CB00030003000005A62029100910000879303C7
:101CC000D200D20000B4C4041301130100E1F505F1
:101CD00054015401000E2707950195010C1E0000C8
:101CE00000000020940000003C020000A01E000044
:101CF000940000206402000058020000100100005F
:101D000043000000F8FFFFFF0040404040404040DB
:101D100040404141414141404040404040404040BE
:101D20004040404040404040400502020202020262
:101D300002020202020202020220202020202020B1
:101D400020202002020202020202909090909090C5
:101D50001010101010101010101010101010101083
:101D600010101010020202020202888888888888F7
:101D700008080808080808080808080808080808E3
:101D800008080808020202024000000000000000EB
:101D90000000000000000000000000000000000043
:101DA0000000000000000000000000000000000033
:101DB0000000000000000000000000000000000023
:101DC0000000000000000000000000000000000013
:101DD0000000000000000000000000000000000003
:101DE00000000000000000000000000000000000F3
:101DF00000000000000000000000000000000000E3
:101E000000000000000000000000000000000000D2
:101E100000000000000000000000000001000000C1
:101E200000000000000000000000000000000000B2
:101E3000000000003F065B4F666D7D077F6F777C7B
:101E4000585E79715C000000000000000000000096
:101E50000000000000000000000000004A414E4663
:101E600045424D41524150524D41594A554E4A55B5
:101E70004C4155475345504F43544E4F56444543AC
:101E80000041004200430044000000000000000048
:101E90000000000000000000010000000024F40029
:0400000500000201F4
:00000001FF
