:020000040000FA
:10000000D0080020E9020000F1020000F302000025
:10001000F5020000F7020000F902000000000000F5
:10002000000000000000000000000000FB020000D3
:10003000FD02000000000000FF020000890E000029
:10004000030300000503000007030000090300008C
:100050000B0300000D0300000F030000110300005C
:10006000130300001503000017030000190300002C
:100070001B0300001D0300001F03000021030000FC
:1000800023030000250300002703000029030000CC
:100090002B0300002D0300002F030000310300009C
:1000A000330300003503000037030000390300006C
:1000B0003B0300003D0300003F030000410300003C
:1000C000430300004503000047030000490300000C
:1000D0004B0300004D0300004F03000051030000DC
:1000E00053030000550300005703000059030000AC
:1000F0005B0300005D0300005F030000610300007C
:1001000063030000650300006703000009060000A8
:100110006B0300006D0300006F030000710300001B
:1001200073030000750300007703000079030000EB
:100130007B0300007D0300007F03000081030000BB
:10014000830300008503000087030000A103000073
:100150000000000000000000A3030000A503000051
:10016000A7030000A903000000000000AB0300008B
:10017000AD030000AF030000B1030000B3030000B3
:10018000B5030000B7030000B9030000BB03000083
:10019000BD030000BF030000C1030000C303000053
:1001A000C5030000C7030000C9030000CB03000023
:1001B000CD030000CF030000D1030000D3030000F3
:1001C000D5030000D7030000D9030000DB030000C3
:1001D000DD030000DF030000E1030000E303000093
:1001E000E5030000E7030000E9030000EB03000063
:1001F000ED030000EF030000F1030000F303000033
:1002000000F002F800F04CF80AA090E8000C8244DC
:100210008344AAF10107DA4501D100F041F8AFF2B9
:10022000090EBAE80F0013F0010F18BFFB1A43F0D4
:1002300001031847E4130000041400000A4410F8F6
:10024000014B14F00F0508BF10F8015B240908BF2B
:1002500010F8014B6D1E05D010F8013B6D1E01F822
:10026000013BF9D1641E03D0641E01F8015BFBD190
:100270009142E4D3704700000023002400250026AB
:10028000103A28BF78C1FBD8520728BF30C148BFF9
:100290000B6070471FB500F0F5FE1FBD10B510BD17
:1002A00000F0BBF81146FFF7F5FF00F075FE00F017
:1002B000D9F803B4FFF7F2FF03BC00F0E1F8000047
:1002C000EFF3108072B67047EFF310807047EFF3D2
:1002D000108062B6704730BF704780F31188704756
:1002E000EFF31180704700004548804745480047BC
:1002F000FEE7FEE7FEE7FEE7FEE7FEE7FEE7FEE7D6
:10030000FEE7FEE7FEE7FEE7FEE7FEE7FEE7FEE7C5
:10031000FEE7FEE7FEE7FEE7FEE7FEE7FEE7FEE7B5
:10032000FEE7FEE7FEE7FEE7FEE7FEE7FEE7FEE7A5
:10033000FEE7FEE7FEE7FEE7FEE7FEE7FEE7FEE795
:10034000FEE7FEE7FEE7FEE7FEE7FEE7FEE7FEE785
:10035000FEE7FEE7FEE7FEE7FEE7FEE7FEE7FEE775
:10036000FEE7FEE7FEE7FEE7FEE7FEE7FEE7FEE765
:10037000FEE7FEE7FEE7FEE7FEE7FEE7FEE7FEE755
:10038000FEE7FEE7FEE7FEE7FEE7FEE7FEE7FEE745
:10039000FEE7FEE7FEE7FEE7FEE7FEE7FEE7FEE735
:1003A000FEE7FEE7FEE7FEE7FEE7FEE7FEE7FEE725
:1003B000FEE7FEE7FEE7FEE7FEE7FEE7FEE7FEE715
:1003C000FEE7FEE7FEE7FEE7FEE7FEE7FEE7FEE705
:1003D000FEE7FEE7FEE7FEE7FEE7FEE7FEE7FEE7F5
:1003E000FEE7FEE7FEE7FEE7FEE7FEE7FEE7FEE7E5
:1003F000FEE7FEE704480549034A054B7047000045
:10040000290F000001020000D0060020D0080020C3
:10041000D0060020704770477047754600F02CF8F2
:10042000AE4605006946534620F00700854618B0E1
:1004300020B5FFF7DFFFBDE820404FF000064FF08A
:1004400000074FF000084FF0000B21F00701AC4609
:10045000ACE8C009ACE8C009ACE8C009ACE8C00928
:100460008D46704710B50446AFF300802046BDE8C6
:100470001040FFF71EBF0000004870476C060020C8
:1004800001491820ABBEFEE726000200704700219C
:1004900000E0491C8142FCD37047000010B500F019
:1004A000EBFD2D4800780A2190FBF1F02B490C5C04
:1004B00022460521222000F0D1F901220621222026
:1004C00000F0CCF900F0D8FD234800780A2190FB19
:1004D000F1F201FB120021490C5C22460521222089
:1004E00000F0BCF902220621222000F0B7F900F04A
:1004F000C3FD06220521222000F0B0F904220621C6
:10050000222000F0ABF900F0B7FD154800780A2171
:1005100090FBF1F011490C5C22460521222000F0ED
:100520009DF908220621222000F098F900F0A4FD90
:100530000B4800780A2190FBF1F201FB12000749F9
:100540000C5C22460521222000F088F910220621A9
:10055000222000F083F910BD0800002014000020C4
:1005600009000020D0F8003412F0010F14BF0B4333
:100570008B43C0F8003412F0020FD0F8202414BFCF
:10058000114322EA0101C0F820147047C0F81C147E
:100590007047D0F810241143C0F81014704770B59C
:1005A0000C4600F0D1FC0546214600F015FA28461D
:1005B000BDE8704000F0D6B9D0F8083412F0010F51
:1005C00014BF0B438B43C0F80834D0F8043412F046
:1005D000020F14BF0B438B43C0F80434D0F80C3423
:1005E00012F0040F14BF194323EA0101C0F80C14E0
:1005F000D0F8381512F4803F14BF41F0010121F00A
:100600000101C0F83815704710B503211148FFF7F4
:10061000BDFF01210F4800F0E5F830B900F012FDF0
:100620000D48007840000D4908800221094800F07B
:10063000D9F870B90A480078401C3C2190FBF1F2CF
:1006400001FB120006490870034800784000054984
:10065000088010BD00D003400100002004000020ED
:1006600008000020020000202DE9F00301264FF0D1
:10067000000C0325C2F3411706FA0CF40C4211D00A
:10068000D0F8C48F4FEA4C0405FA04F928EA0908A7
:10069000C0F8C48FD0F8C48F07FA04F448EA040401
:1006A000C0F8C44F0CF1010C0CF0FF0CBCF1080FAA
:1006B000E2D3D0F800C512F0010F14BF4CEA010CD0
:1006C0002CEA010CC0F800C5D0F804C512F0020FE6
:1006D00014BF4CEA010C2CEA010CC0F804C5D0F898
:1006E00008C512F0040F14BF4CEA010C2CEA010CEF
:1006F000C0F808C5D0F818C512F0080F14BF4CEAAE
:10070000010C2CEA010CC0F818C512F0100FD0F83B
:100710003C2514BF0A438A43C0F83C25D0F80C2579
:1007200013F0010F14BF0A438A43C0F80C25D0F818
:10073000102513F0020F14BF0A438A43C0F8102596
:10074000D0F8142513F0040F14BF0A438A43C0F8ED
:100750001425D0F81C2513F0080F14BF0A438A4350
:10076000C0F81C25D0F8442513F4007F14BF0A43B9
:100770008A43C0F84425D0F8402513F4407F14BFC5
:100780000A438A43C0F84025D0F82825002B0CBF27
:10079000114322EA0101C0F82815BDE8F0037047B3
:1007A0000E4AC0F30741D26E01238B401A420C4A15
:1007B0001ABF02EBC101496852F83110020AD1F8A0
:1007C0002C354FF00F0C0CFA02FC00F00F0023EA5E
:1007D0000C0390401843C1F82C05704700E00F400F
:1007E0002812000050F82100704730B50C4605462D
:1007F0000022FFF7B7FE21462846BDE83040082317
:100800000122FFF731BF30B50C460546082301220F
:10081000FFF72AFF21462846BDE830400122FFF7B6
:10082000A1BE30B50C4605460222FFF79BFE2146CD
:100830002846BDE8304009230122FFF715BF30B537
:100840000C4605460222FFF78DFE21462846BDE8EC
:10085000304008230122FFF707BF00002DE9F041D7
:1008600004460F46154600BF184800F031F800282E
:10087000FAD100222146154800F070F83946134895
:1008800000F02EF80321114800F028F800BF0F48AF
:1008900000F01EF80028FAD10C4800F028F8C6B283
:1008A00029460A4800F01CF80521084800F016F80F
:1008B00000BF064800F00CF80028FAD1034800F009
:1008C00016F8C6B23046BDE8F081000000000240D4
:1008D000406810F0010018BF012070474160704768
:1008E00081607047016A41F0100101627047406801
:1008F00010F0010F05D110F0120F1CBF00F01C000A
:100900007047002070470000036A43F01003036241
:10091000002A14BF0E4A0F4A02EB820301EB830345
:1009200002EB820292005B1EB3FBF2F2521EC26027
:10093000D0F8C02F12F0010F08BF7047064A1144CB
:10094000521CB1FBF2F1491E41F08001C1607047B9
:10095000801A0600A08601007F47370142EA410164
:10096000016070471649042804BF086840F48030CD
:1009700018D0052804BF086840F4003012D00628BB
:1009800012D00F2815D0102838BF7047103800F04B
:100990001F01012202FA01F142090A4850F822001F
:1009A0000160704708607047086840F48020086064
:1009B00070474FF0E020016941F00201016170478A
:1009C00024ED00E07413000010B5FFF780FC002850
:1009D00018BF012010BD000030B40A4D2A680A4B30
:1009E0009A421CBFD5F800C0002207D05CF8224014
:1009F00043F82240521C9B2AF8D32B6043F8201066
:100A000030BC704708ED00E00004002010B51A4823
:100A100000F0FCF900BF184800F00CFA0028FAD0EA
:100A20001548C01C00F0F2F900BF1348C01C00F0CC
:100A300001FA0028F9D0FFF7C7FF4620FFF792FF21
:100A40000E490F48FFF7ABFD01210E48FFF7DBFE13
:100A500003210B48FFF7C9FE0A230122032108489E
:100A6000FFF702FE002203210548FFF7A5FD032141
:100A70000348FFF78EFD10BD050800F009060000D1
:100A800000D003400050024010B51E4800F0BEF9EF
:100A90001D4800F0BBF91D48FFF782FE1C48FFF718
:100AA0007FFE04211B48FFF7CAFE08211948FFF703
:100AB000B8FE0122184801681848FFF725FF1748BB
:100AC000FFF710FFFF220C212220FFF7C7FE04468C
:100AD00000220D212220FFF7C1FE044600220E2134
:100AE0002220FFF7BBFE0446002203211820FFF757
:100AF000B5FE0446FF2201211820FFF7AFFE044691
:100B000010BD0000002000F0010800F00208010004
:100B1000020C0100005000401000002000000240C4
:100B20002DE9F003AF4D02462868AF4B1840A0F105
:100B30008053B3F5A02359D002F03809DFF8AC8216
:100B4000C2F38414B9F1100F25D0B9F1300F04BFEE
:100B500047F230504FF400130DD04FF0380090435F
:100B600004BF4FF40040C30105D012F0380F1CBF82
:100B70000020034613D09E4F12F4605F4FF0000632
:100B800018BF00222CD057F8324044457DD307EBE4
:100B9000C2025268E1E0002340461524EBE7A4F1CD
:100BA0000900122822D29348D5F87CC04FF04C732C
:100BB00050F824002CF01C0C072CA8BF4CF0100C93
:100BC000C5F87CC02E6D4FF4002C16F4807FD2D176
:100BD000BCF1010C0AD02E6D16F4807FF8D0CAE764
:100BE00012F0380F18BFB9F1100F04D0BDE8F003B0
:100BF0004FF000007047C2F30268DFF8FCC14FF00D
:100C0000000257F83290E14503D307EBC202526865
:100C100003E0521C062AF4D33246C5F8C020D5F8AA
:100C2000B020DFF8D8C102EA0C0242F00042C5F859
:100C3000B020DFF8CCC1A4F109024C1E5CF828C03A
:100C4000A444BCFBF1FCD5F8B0101943C5F8B010B2
:100C500008EBC80101EB41046A4902EB420201EBD7
:100C6000C40101EB82046468C5F86441D5F86441AD
:100C70006FF0FF0808EB0C2C44EA0C0CC5F864C1BB
:100C800051F82210D5F8602100E061E002F4000282
:100C90001143C5F86011D5F86011D5F86021C1F392
:100CA0008921C2F30904D5F86421C2F3042202F1B8
:100CB000010CD5F8642102F01F02521CB0FBF2F0C7
:100CC0004A09C2F100084443424301EB481104EBD6
:100CD0005212484302EB9020B0FBFCF0410808465A
:100CE000002257F832C0844503D307EBC2004668A0
:100CF00002E0521C062AF4D3C5F8C060D5F86001A2
:100D000010F4000F1DBFD5F8B00040F08040C5F8CA
:100D1000B000D5F8600104BF40F40000C5F86001E0
:100D20004FF40040D5F8682112F0010F02D1401EA7
:100D30000028F7DC002808BF002148D0D5F8B00013
:100D4000184340F0010040F01040C5F8B0003EE00C
:100D5000521C062AFFF417AF3246C5F8C020D5F85A
:100D6000602122F40002C5F86021D5F8B020DFF838
:100D700098C002EA0C0242F00042C5F8B0200029F7
:100D800008BF4FF0000C0AD0B0FBF1FCBCF1000F23
:100D900018BFACF1010C0CF10101B0FBF1F10846F8
:100DA000002257F83240844203D307EBC200466862
:100DB00002E0521C062AF4D3C5F8C060D5F8B00092
:100DC00043EA8C22104340F00040C5F8B000D5F84B
:100DD000B00020F47000C5F8B000BDE8F00308468C
:100DE0007047000000E00F400000FF700024F40096
:100DF000E8150000CC13000040787D0100FC0FE0F6
:100E0000C413000038140000FF0300EFC0F30723F1
:100E10000749C0B2194401F07043C1F3130143EA1A
:100E2000411141EA800040F00070012202607047E9
:100E300000E60F40C0F307220849C0B2114401F098
:100E40007042C1F3130142EA411141EA800040F0CF
:100E500000700068002818BF0120704700EA0F40AA
:100E60004FF0E020016941F00501016170474FF04A
:100E7000E020016941F00201016170474FF0E0217B
:100E8000401E48617047000010B52148008828B115
:100E90001F480088401E1E49088014E001211D489B
:100EA000FFF7A0FC38B11C48007800EB8000400040
:100EB0001749088004E01848007840001449088069
:100EC0000120164908701648008828B11448008887
:100ED000401E1349088019E002210E48FFF782FCEA
:100EE00060B10D480078C0EB001000EB80004FF6B9
:100EF000FF7101EAC0000A49088004E00648007852
:100F000040000749088001200649087010BD000014
:100F10000400002000D00340010000200700002052
:100F200002000020060000200448006840F4700021
:100F300002490860024803490860704788ED00E0F4
:100F40000024F4002C00002010490F4A18230968DF
:100F5000DFF83CC001EA0C01A1F1805CBCF5202C5B
:100F600004BF0C4A1B230021002B0AD952F831C0C0
:100F7000844503D102EBC10040687047491C994287
:100F8000F4D30020704700009010000000E00F40F4
:100F90000000FF705011000021492248FFF7C0FDFA
:100FA00021490860084600684FF47A71B0FBF1F4FB
:100FB0002046FFF763FFFFF753FFFFF758FFFFF7E8
:100FC00003FDFFF723FDFFF75FFD184800784FF49E
:100FD000167110FB01F0164908801448007800EBE8
:100FE000800040001349088019E01348007820B1C0
:100FF00000201149087000F025F81048007860B111
:1010000000200E4908700E480078401C3C2190FBDF
:10101000F1F201FB12000A490870FFF73FFAE4E71A
:10102000002D3101500500F11000002001000020CA
:10103000020000200400002007000020060000201D
:10104000080000200A480078401C0949087008463A
:1010500000783C280BD10020087006480078401C1E
:101060003C2190FBF1F201FB12000249087070472D
:10107000090000200800002000B544F62060FFF7BA
:1010800006FA00BD4FF04070E1EE100A7047000014
:1010900000400040100000000080054010000000EB
:1010A00000500040110000000090054011000000B9
:1010B000006000401200000000A005401200000087
:1010C000007000401300000000B005401300000055
:1010D000004002401400000000C005401400000061
:1010E000005002402E00000000D005402E000000FD
:1010F000006002402F00000000E005402F000000CB
:10110000007002403000000000F005403000000098
:1011100000D00340460000000000064046000000EA
:101120000010064047000000002006404800000074
:10113000003006407F0000000040064080000000B4
:101140000050064084000000006006408C00000053
:10115000004000401000000000800540100000002A
:1011600000500040110000000090054011000000F8
:10117000006000401200000000A0054012000000C6
:10118000007000401300000000B005401300000094
:10119000004002401400000000C0054014000000A0
:1011A000005002402E00000000D005402E0000003C
:1011B000006002402F00000000E005402F0000000A
:1011C000007002403000000000F0054030000000D8
:1011D00000D0034043000000000006404300000030
:1011E00000100640440000000020064045000000BA
:1011F0000030064058000000004006405900000042
:10120000005006405C0000000060064064000000E2
:10121000007006406C000000008006406D00000079
:10122000009006407F000000004000400080054024
:1012300000500040009005400060004000A00540C4
:101240000070004000B005400040024000C0054072
:101250000050024000D005400060024000E0054020
:101260000070024000F0054000D00340000006403E
:1012700000100640001006400020064000200640F6
:101280000030064000300640004006400040064066
:1012900000500640005006400060064000600640D6
:1012A0000070064000700640008006400080064046
:1012B0000090064000900640000700000006000075
:1012C0000005000000040000000300000002000010
:1012D00000010000000000000000000018ED00E028
:1012E0001CED00E020ED00E000E400E004E400E09C
:1012F00008E400E00CE400E010E400E014E400E0A6
:1013000018E400E01CE400E020E400E024E400E055
:1013100028E400E02CE400E030E400E034E400E005
:1013200038E400E03CE400E040E400E044E400E0B5
:1013300048E400E04CE400E050E400E054E400E065
:1013400058E400E05CE400E060E400E064E400E015
:1013500068E400E06CE400E070E400E074E400E0C5
:1013600078E400E07CE400E080E400E084E400E075
:1013700088E400E000E100E004E100E008E100E0D2
:101380000CE100E010E100E080E100E084E100E039
:1013900088E100E08CE100E090E100E000E200E0A4
:1013A00004E200E008E200E00CE200E010E200E00D
:1013B00080E200E084E200E088E200E08CE200E00D
:1013C00090E200E000688909001C4E0E40420F00C8
:1013D00000201C0080841E0000802500999E36009D
:1013E0000040380000093D0000803E0000004B0036
:1013F000404B4C0000204E00808D5B0000C05D0023
:101400000080700000127A0000007D008096980035
:10141000001BB7000080BB00C0E8CE00647ADA0091
:101420000024F4000000FA0080A81201002D310110
:1014300000366E0140787D01400000000000000091
:10144000000100003E000800000000000001000054
:10145000A000000002000000000100003454010060
:1014600000000000000100002B70060000000000DA
:101470000001000028000000000000000001000042
:101480002700010000000000000100002000000013
:1014900000000000000100005000000002000000F9
:1014A000000100001AAC0000000000000001000074
:1014B00017940900000000000001000016980500C4
:1014C0000000000000010000140000000000000007
:1014D000000100001380080000000000000100006F
:1014E000A000000008000000000100001000000043
:1014F00000000000000100002800000002000000C1
:101500000001000040000000040000000001000095
:101510006000000000000000000100005D000C0001
:10152000000000000001000050000000000000006A
:10153000000100004E000200000000000001000059
:1015400041AC010000000000000100003C00000070
:1015500000000000000100003A80090000000000C7
:101560000001000030000000000000000001000049
:10157000280000000000000000010000270001001A
:1015800000000000000100002360060000000000D1
:1015900000010000216008000000000000010000C0
:1015A0001E00000000000000000100001DC004003B
:1015B00000000000000100005000000002000000D8
:1015C0000001000018000000000000000001000001
:1015D0001400000000000000000100006000000096
:1015E00004000000000100000024F400300030007E
:1015F000005A62029100910000879303D200D2004A
:1016000000B4C4041301130100E1F50554015401B1
:10161000000E2707950195013816000000000020F4
:101620006C0600003C020000641600006C060020FE
:101630006402000078020000D30064620150163F8B
:10164000065B4F666D7D077F6F777C585E79715CB6
:10165000050A140203FF24F401FF01FF01FF01FF4B
:0416600001FF014A3B
:0400000500000201F4
:00000001FF
